{
  "address": "0x15f5a8f72a7b9e2b149d4a0810df7651b94b01ed",
  "abi": [
    {
      "inputs": [
        {
          "internalType": "address",
          "name": "oracle",
          "type": "address"
        },
        {
          "internalType": "bytes32",
          "name": "jobId",
          "type": "bytes32"
        },
        {
          "internalType": "uint256",
          "name": "fee",
          "type": "uint256"
        },
        {
          "internalType": "address",
          "name": "linkToken",
          "type": "address"
        }
      ],
      "stateMutability": "nonpayable",
      "type": "constructor"
    },
    {
      "anonymous": false,
      "inputs": [
        {
          "indexed": true,
          "internalType": "address",
          "name": "owner",
          "type": "address"
        },
        {
          "indexed": true,
          "internalType": "address",
          "name": "approved",
          "type": "address"
        },
        {
          "indexed": true,
          "internalType": "uint256",
          "name": "tokenId",
          "type": "uint256"
        }
      ],
      "name": "Approval",
      "type": "event"
    },
    {
      "anonymous": false,
      "inputs": [
        {
          "indexed": true,
          "internalType": "address",
          "name": "owner",
          "type": "address"
        },
        {
          "indexed": true,
          "internalType": "address",
          "name": "operator",
          "type": "address"
        },
        {
          "indexed": false,
          "internalType": "bool",
          "name": "approved",
          "type": "bool"
        }
      ],
      "name": "ApprovalForAll",
      "type": "event"
    },
    {
      "anonymous": false,
      "inputs": [
        {
          "indexed": true,
          "internalType": "bytes32",
          "name": "id",
          "type": "bytes32"
        }
      ],
      "name": "ChainlinkCancelled",
      "type": "event"
    },
    {
      "anonymous": false,
      "inputs": [
        {
          "indexed": true,
          "internalType": "bytes32",
          "name": "id",
          "type": "bytes32"
        }
      ],
      "name": "ChainlinkFulfilled",
      "type": "event"
    },
    {
      "anonymous": false,
      "inputs": [
        {
          "indexed": true,
          "internalType": "bytes32",
          "name": "id",
          "type": "bytes32"
        }
      ],
      "name": "ChainlinkRequested",
      "type": "event"
    },
    {
      "anonymous": false,
      "inputs": [
        {
          "indexed": true,
          "internalType": "address",
          "name": "previousOwner",
          "type": "address"
        },
        {
          "indexed": true,
          "internalType": "address",
          "name": "newOwner",
          "type": "address"
        }
      ],
      "name": "OwnershipTransferred",
      "type": "event"
    },
    {
      "anonymous": false,
      "inputs": [
        {
          "indexed": true,
          "internalType": "address",
          "name": "from",
          "type": "address"
        },
        {
          "indexed": true,
          "internalType": "address",
          "name": "to",
          "type": "address"
        },
        {
          "indexed": true,
          "internalType": "uint256",
          "name": "tokenId",
          "type": "uint256"
        }
      ],
      "name": "Transfer",
      "type": "event"
    },
    {
      "anonymous": false,
      "inputs": [
        {
          "indexed": true,
          "internalType": "bytes32",
          "name": "requestId",
          "type": "bytes32"
        },
        {
          "indexed": true,
          "internalType": "string",
          "name": "password",
          "type": "string"
        }
      ],
      "name": "attemptedPassword",
      "type": "event"
    },
    {
      "inputs": [
        {
          "internalType": "address",
          "name": "to",
          "type": "address"
        },
        {
          "internalType": "uint256",
          "name": "tokenId",
          "type": "uint256"
        }
      ],
      "name": "approve",
      "outputs": [],
      "stateMutability": "nonpayable",
      "type": "function"
    },
    {
      "inputs": [
        {
          "internalType": "address",
          "name": "owner",
          "type": "address"
        }
      ],
      "name": "balanceOf",
      "outputs": [
        {
          "internalType": "uint256",
          "name": "",
          "type": "uint256"
        }
      ],
      "stateMutability": "view",
      "type": "function"
    },
    {
      "inputs": [
        {
          "internalType": "uint256",
          "name": "tokenId",
          "type": "uint256"
        }
      ],
      "name": "getApproved",
      "outputs": [
        {
          "internalType": "address",
          "name": "",
          "type": "address"
        }
      ],
      "stateMutability": "view",
      "type": "function"
    },
    {
      "inputs": [
        {
          "internalType": "address",
          "name": "owner",
          "type": "address"
        },
        {
          "internalType": "address",
          "name": "operator",
          "type": "address"
        }
      ],
      "name": "isApprovedForAll",
      "outputs": [
        {
          "internalType": "bool",
          "name": "",
          "type": "bool"
        }
      ],
      "stateMutability": "view",
      "type": "function"
    },
    {
      "inputs": [],
      "name": "name",
      "outputs": [
        {
          "internalType": "string",
          "name": "",
          "type": "string"
        }
      ],
      "stateMutability": "view",
      "type": "function"
    },
    {
      "inputs": [],
      "name": "owner",
      "outputs": [
        {
          "internalType": "address",
          "name": "",
          "type": "address"
        }
      ],
      "stateMutability": "view",
      "type": "function"
    },
    {
      "inputs": [
        {
          "internalType": "uint256",
          "name": "tokenId",
          "type": "uint256"
        }
      ],
      "name": "ownerOf",
      "outputs": [
        {
          "internalType": "address",
          "name": "",
          "type": "address"
        }
      ],
      "stateMutability": "view",
      "type": "function"
    },
    {
      "inputs": [],
      "name": "renounceOwnership",
      "outputs": [],
      "stateMutability": "nonpayable",
      "type": "function"
    },
    {
      "inputs": [
        {
          "internalType": "bytes32",
          "name": "",
          "type": "bytes32"
        }
      ],
      "name": "requestIdToAttemptee",
      "outputs": [
        {
          "internalType": "address",
          "name": "",
          "type": "address"
        }
      ],
      "stateMutability": "view",
      "type": "function"
    },
    {
      "inputs": [],
      "name": "s_dao",
      "outputs": [
        {
          "internalType": "address",
          "name": "",
          "type": "address"
        }
      ],
      "stateMutability": "view",
      "type": "function"
    },
    {
      "inputs": [],
      "name": "s_passwordtwo",
      "outputs": [
        {
          "internalType": "string",
          "name": "",
          "type": "string"
        }
      ],
      "stateMutability": "view",
      "type": "function"
    },
    {
      "inputs": [],
      "name": "s_variable",
      "outputs": [
        {
          "internalType": "uint256",
          "name": "",
          "type": "uint256"
        }
      ],
      "stateMutability": "view",
      "type": "function"
    },
    {
      "inputs": [
        {
          "internalType": "address",
          "name": "from",
          "type": "address"
        },
        {
          "internalType": "address",
          "name": "to",
          "type": "address"
        },
        {
          "internalType": "uint256",
          "name": "tokenId",
          "type": "uint256"
        }
      ],
      "name": "safeTransferFrom",
      "outputs": [],
      "stateMutability": "nonpayable",
      "type": "function"
    },
    {
      "inputs": [
        {
          "internalType": "address",
          "name": "from",
          "type": "address"
        },
        {
          "internalType": "address",
          "name": "to",
          "type": "address"
        },
        {
          "internalType": "uint256",
          "name": "tokenId",
          "type": "uint256"
        },
        {
          "internalType": "bytes",
          "name": "_data",
          "type": "bytes"
        }
      ],
      "name": "safeTransferFrom",
      "outputs": [],
      "stateMutability": "nonpayable",
      "type": "function"
    },
    {
      "inputs": [
        {
          "internalType": "address",
          "name": "operator",
          "type": "address"
        },
        {
          "internalType": "bool",
          "name": "approved",
          "type": "bool"
        }
      ],
      "name": "setApprovalForAll",
      "outputs": [],
      "stateMutability": "nonpayable",
      "type": "function"
    },
    {
      "inputs": [
        {
          "internalType": "bytes4",
          "name": "interfaceId",
          "type": "bytes4"
        }
      ],
      "name": "supportsInterface",
      "outputs": [
        {
          "internalType": "bool",
          "name": "",
          "type": "bool"
        }
      ],
      "stateMutability": "view",
      "type": "function"
    },
    {
      "inputs": [],
      "name": "symbol",
      "outputs": [
        {
          "internalType": "string",
          "name": "",
          "type": "string"
        }
      ],
      "stateMutability": "view",
      "type": "function"
    },
    {
      "inputs": [
        {
          "internalType": "uint256",
          "name": "",
          "type": "uint256"
        }
      ],
      "name": "tokenIdTaken",
      "outputs": [
        {
          "internalType": "bool",
          "name": "",
          "type": "bool"
        }
      ],
      "stateMutability": "view",
      "type": "function"
    },
    {
      "inputs": [
        {
          "internalType": "uint256",
          "name": "",
          "type": "uint256"
        }
      ],
      "name": "tokenIdToImageURI",
      "outputs": [
        {
          "internalType": "string",
          "name": "",
          "type": "string"
        }
      ],
      "stateMutability": "view",
      "type": "function"
    },
    {
      "inputs": [
        {
          "internalType": "uint256",
          "name": "tokenId",
          "type": "uint256"
        }
      ],
      "name": "tokenURI",
      "outputs": [
        {
          "internalType": "string",
          "name": "",
          "type": "string"
        }
      ],
      "stateMutability": "view",
      "type": "function"
    },
    {
      "inputs": [
        {
          "internalType": "address",
          "name": "from",
          "type": "address"
        },
        {
          "internalType": "address",
          "name": "to",
          "type": "address"
        },
        {
          "internalType": "uint256",
          "name": "tokenId",
          "type": "uint256"
        }
      ],
      "name": "transferFrom",
      "outputs": [],
      "stateMutability": "nonpayable",
      "type": "function"
    },
    {
      "inputs": [
        {
          "internalType": "address",
          "name": "newOwner",
          "type": "address"
        }
      ],
      "name": "transferOwnership",
      "outputs": [],
      "stateMutability": "nonpayable",
      "type": "function"
    }
  ],
  "transactionHash": "0x2db47b6153657cb0cc1e0931d9021a055c40fdbb111b3bf1fcc80d6ec22b2f23",
  "args": [
    "0xc57B33452b4F7BB189bB5AfaE9cc4aBa1f7a4FD8",
    {
      "0": 53,
      "1": 51,
      "2": 49,
      "3": 48,
      "4": 57,
      "5": 50,
      "6": 98,
      "7": 57,
      "8": 98,
      "9": 53,
      "10": 51,
      "11": 48,
      "12": 52,
      "13": 101,
      "14": 50,
      "15": 98,
      "16": 56,
      "17": 52,
      "18": 57,
      "19": 102,
      "20": 51,
      "21": 99,
      "22": 50,
      "23": 56,
      "24": 54,
      "25": 55,
      "26": 49,
      "27": 48,
      "28": 54,
      "29": 53,
      "30": 98,
      "31": 99
    },
    "1000000000000000000",
    "0xb0897686c545045afc77cf20ec7a532e3120e0f1"
  ],
  "solcInputHash": "fde908ba8560fd7e29e0e59c2792fd84",
  "bytecode": "0x608060405260016004553480156200001657600080fd5b5060405162003e7438038062003e7483398181016040528101906200003c919062000b1d565b6040518060400160405280600d81526020017f53636176656e67657248756e74000000000000000000000000000000000000008152506040518060400160405280600281526020017f53480000000000000000000000000000000000000000000000000000000000008152508160069080519060200190620000c0929190620009df565b508060079080519060200190620000d9929190620009df565b505050620000fc620000f06200036d60201b60201c565b6200037560201b60201c565b600073ffffffffffffffffffffffffffffffffffffffff168173ffffffffffffffffffffffffffffffffffffffff1614156200014857620001426200043b60201b60201c565b6200015a565b6200015981620004e360201b60201c565b5b83600d60006101000a81548173ffffffffffffffffffffffffffffffffffffffff021916908373ffffffffffffffffffffffffffffffffffffffff16021790555082600e8190555081600f81905550600260128190555060405180606001604052806035815260200162003dd560359139601560008081526020019081526020016000209080519060200190620001f3929190620009df565b5060405180606001604052806035815260200162003da0603591396015600060018152602001908152602001600020908051906020019062000237929190620009df565b5060405180606001604052806035815260200162003e0a60359139601560006002815260200190815260200160002090805190602001906200027b929190620009df565b5060405180606001604052806035815260200162003e3f6035913960156000600381526020019081526020016000209080519060200190620002bf929190620009df565b5060405180606001604052806035815260200162003d6b603591396015600060048152602001908152602001600020908051906020019062000303929190620009df565b50620003173360006200052760201b60201c565b6200032a3360016200052760201b60201c565b6200033d3360026200052760201b60201c565b620003503360036200052760201b60201c565b620003633360046200052760201b60201c565b505050506200103a565b600033905090565b6000600c60009054906101000a900473ffffffffffffffffffffffffffffffffffffffff16905081600c60006101000a81548173ffffffffffffffffffffffffffffffffffffffff021916908373ffffffffffffffffffffffffffffffffffffffff1602179055508173ffffffffffffffffffffffffffffffffffffffff168173ffffffffffffffffffffffffffffffffffffffff167f8be0079c531659141344cd1fd0a4f28419497f9722a3daafe3b4186f6b6457e060405160405180910390a35050565b620004e173c89bd4e1632d3a43cb03aaad5262cbe4038bc57173ffffffffffffffffffffffffffffffffffffffff166338cc48316040518163ffffffff1660e01b815260040160206040518083038186803b1580156200049a57600080fd5b505afa158015620004af573d6000803e3d6000fd5b505050506040513d601f19601f82011682018060405250810190620004d5919062000aeb565b620004e360201b60201c565b565b80600260006101000a81548173ffffffffffffffffffffffffffffffffffffffff021916908373ffffffffffffffffffffffffffffffffffffffff16021790555050565b620005498282604051806020016040528060008152506200054d60201b60201c565b5050565b6200055f8383620005bb60201b60201c565b620005746000848484620007a160201b60201c565b620005b6576040517f08c379a0000000000000000000000000000000000000000000000000000000008152600401620005ad9062000ced565b60405180910390fd5b505050565b600073ffffffffffffffffffffffffffffffffffffffff168273ffffffffffffffffffffffffffffffffffffffff1614156200062e576040517f08c379a0000000000000000000000000000000000000000000000000000000008152600401620006259062000d31565b60405180910390fd5b6200063f816200095b60201b60201c565b1562000682576040517f08c379a0000000000000000000000000000000000000000000000000000000008152600401620006799062000d0f565b60405180910390fd5b6200069660008383620009c760201b60201c565b6001600960008473ffffffffffffffffffffffffffffffffffffffff1673ffffffffffffffffffffffffffffffffffffffff1681526020019081526020016000206000828254620006e8919062000d80565b92505081905550816008600083815260200190815260200160002060006101000a81548173ffffffffffffffffffffffffffffffffffffffff021916908373ffffffffffffffffffffffffffffffffffffffff160217905550808273ffffffffffffffffffffffffffffffffffffffff16600073ffffffffffffffffffffffffffffffffffffffff167fddf252ad1be2c89b69c2b068fc378daa952ba7f163c4a11628f55a4df523b3ef60405160405180910390a45050565b6000620007cf8473ffffffffffffffffffffffffffffffffffffffff16620009cc60201b620010f11760201c565b156200094e578373ffffffffffffffffffffffffffffffffffffffff1663150b7a02620008016200036d60201b60201c565b8786866040518563ffffffff1660e01b815260040162000825949392919062000c99565b602060405180830381600087803b1580156200084057600080fd5b505af19250505080156200087457506040513d601f19601f8201168201806040525081019062000871919062000b8f565b60015b620008fd573d8060008114620008a7576040519150601f19603f3d011682016040523d82523d6000602084013e620008ac565b606091505b50600081511415620008f5576040517f08c379a0000000000000000000000000000000000000000000000000000000008152600401620008ec9062000ced565b60405180910390fd5b805181602001fd5b63150b7a0260e01b7bffffffffffffffffffffffffffffffffffffffffffffffffffffffff1916817bffffffffffffffffffffffffffffffffffffffffffffffffffffffff19161491505062000953565b600190505b949350505050565b60008073ffffffffffffffffffffffffffffffffffffffff166008600084815260200190815260200160002060009054906101000a900473ffffffffffffffffffffffffffffffffffffffff1673ffffffffffffffffffffffffffffffffffffffff1614159050919050565b505050565b600080823b905060008111915050919050565b828054620009ed9062000e87565b90600052602060002090601f01602090048101928262000a11576000855562000a5d565b82601f1062000a2c57805160ff191683800117855562000a5d565b8280016001018555821562000a5d579182015b8281111562000a5c57825182559160200191906001019062000a3f565b5b50905062000a6c919062000a70565b5090565b5b8082111562000a8b57600081600090555060010162000a71565b5090565b60008151905062000aa08162000fd2565b92915050565b60008151905062000ab78162000fec565b92915050565b60008151905062000ace8162001006565b92915050565b60008151905062000ae58162001020565b92915050565b60006020828403121562000b045762000b0362000f1b565b5b600062000b148482850162000a8f565b91505092915050565b6000806000806080858703121562000b3a5762000b3962000f1b565b5b600062000b4a8782880162000a8f565b945050602062000b5d8782880162000aa6565b935050604062000b708782880162000ad4565b925050606062000b838782880162000a8f565b91505092959194509250565b60006020828403121562000ba85762000ba762000f1b565b5b600062000bb88482850162000abd565b91505092915050565b62000bcc8162000ddd565b82525050565b600062000bdf8262000d53565b62000beb818562000d5e565b935062000bfd81856020860162000e51565b62000c088162000f20565b840191505092915050565b600062000c2260328362000d6f565b915062000c2f8262000f31565b604082019050919050565b600062000c49601c8362000d6f565b915062000c568262000f80565b602082019050919050565b600062000c7060208362000d6f565b915062000c7d8262000fa9565b602082019050919050565b62000c938162000e47565b82525050565b600060808201905062000cb0600083018762000bc1565b62000cbf602083018662000bc1565b62000cce604083018562000c88565b818103606083015262000ce2818462000bd2565b905095945050505050565b6000602082019050818103600083015262000d088162000c13565b9050919050565b6000602082019050818103600083015262000d2a8162000c3a565b9050919050565b6000602082019050818103600083015262000d4c8162000c61565b9050919050565b600081519050919050565b600082825260208201905092915050565b600082825260208201905092915050565b600062000d8d8262000e47565b915062000d9a8362000e47565b9250827fffffffffffffffffffffffffffffffffffffffffffffffffffffffffffffffff0382111562000dd25762000dd162000ebd565b5b828201905092915050565b600062000dea8262000e27565b9050919050565b6000819050919050565b60007fffffffff0000000000000000000000000000000000000000000000000000000082169050919050565b600073ffffffffffffffffffffffffffffffffffffffff82169050919050565b6000819050919050565b60005b8381101562000e7157808201518184015260208101905062000e54565b8381111562000e81576000848401525b50505050565b6000600282049050600182168062000ea057607f821691505b6020821081141562000eb75762000eb662000eec565b5b50919050565b7f4e487b7100000000000000000000000000000000000000000000000000000000600052601160045260246000fd5b7f4e487b7100000000000000000000000000000000000000000000000000000000600052602260045260246000fd5b600080fd5b6000601f19601f8301169050919050565b7f4552433732313a207472616e7366657220746f206e6f6e20455243373231526560008201527f63656976657220696d706c656d656e7465720000000000000000000000000000602082015250565b7f4552433732313a20746f6b656e20616c7265616479206d696e74656400000000600082015250565b7f4552433732313a206d696e7420746f20746865207a65726f2061646472657373600082015250565b62000fdd8162000ddd565b811462000fe957600080fd5b50565b62000ff78162000df1565b81146200100357600080fd5b50565b620010118162000dfb565b81146200101d57600080fd5b50565b6200102b8162000e47565b81146200103757600080fd5b50565b612d21806200104a6000396000f3fe608060405234801561001057600080fd5b50600436106101425760003560e01c80637c76f045116100b8578063b88d4fde1161007c578063b88d4fde14610377578063c87b56dd14610393578063e985e9c5146103c3578063f2fde38b146103f3578063f5addf9d1461040f578063fd4f19ea1461043f57610142565b80637c76f045146102bf5780638da5cb5b146102ef57806395d89b411461030d578063a22cb4651461032b578063b62b79391461034757610142565b806333e757771161010a57806333e75777146101fd57806342842e0e1461021b578063458c4c1f146102375780636352211e1461025557806370a0823114610285578063715018a6146102b557610142565b806301ffc9a71461014757806306fdde0314610177578063081812fc14610195578063095ea7b3146101c557806323b872dd146101e1575b600080fd5b610161600480360381019061015c9190611cea565b61045d565b60405161016e9190612178565b60405180910390f35b61017f61053f565b60405161018c9190612193565b60405180910390f35b6101af60048036038101906101aa9190611d44565b6105d1565b6040516101bc9190612111565b60405180910390f35b6101df60048036038101906101da9190611c7d565b610656565b005b6101fb60048036038101906101f69190611b67565b61076e565b005b6102056107ce565b6040516102129190612375565b60405180910390f35b61023560048036038101906102309190611b67565b6107d4565b005b61023f6107f4565b60405161024c9190612193565b60405180910390f35b61026f600480360381019061026a9190611d44565b610882565b60405161027c9190612111565b60405180910390f35b61029f600480360381019061029a9190611afa565b610934565b6040516102ac9190612375565b60405180910390f35b6102bd6109ec565b005b6102d960048036038101906102d49190611cbd565b610a74565b6040516102e69190612111565b60405180910390f35b6102f7610aa7565b6040516103049190612111565b60405180910390f35b610315610ad1565b6040516103229190612193565b60405180910390f35b61034560048036038101906103409190611c3d565b610b63565b005b610361600480360381019061035c9190611d44565b610ce4565b60405161036e9190612193565b60405180910390f35b610391600480360381019061038c9190611bba565b610d84565b005b6103ad60048036038101906103a89190611d44565b610de6565b6040516103ba9190612193565b60405180910390f35b6103dd60048036038101906103d89190611b27565b610f1f565b6040516103ea9190612178565b60405180910390f35b61040d60048036038101906104089190611afa565b610fb3565b005b61042960048036038101906104249190611d44565b6110ab565b6040516104369190612178565b60405180910390f35b6104476110cb565b6040516104549190612111565b60405180910390f35b60007f80ac58cd000000000000000000000000000000000000000000000000000000007bffffffffffffffffffffffffffffffffffffffffffffffffffffffff1916827bffffffffffffffffffffffffffffffffffffffffffffffffffffffff1916148061052857507f5b5e139f000000000000000000000000000000000000000000000000000000007bffffffffffffffffffffffffffffffffffffffffffffffffffffffff1916827bffffffffffffffffffffffffffffffffffffffffffffffffffffffff1916145b80610538575061053782611104565b5b9050919050565b60606006805461054e906125fe565b80601f016020809104026020016040519081016040528092919081815260200182805461057a906125fe565b80156105c75780601f1061059c576101008083540402835291602001916105c7565b820191906000526020600020905b8154815290600101906020018083116105aa57829003601f168201915b5050505050905090565b60006105dc8261116e565b61061b576040517f08c379a0000000000000000000000000000000000000000000000000000000008152600401610612906122b5565b60405180910390fd5b600a600083815260200190815260200160002060009054906101000a900473ffffffffffffffffffffffffffffffffffffffff169050919050565b600061066182610882565b90508073ffffffffffffffffffffffffffffffffffffffff168373ffffffffffffffffffffffffffffffffffffffff1614156106d2576040517f08c379a00000000000000000000000000000000000000000000000000000000081526004016106c990612335565b60405180910390fd5b8073ffffffffffffffffffffffffffffffffffffffff166106f16111da565b73ffffffffffffffffffffffffffffffffffffffff161480610720575061071f8161071a6111da565b610f1f565b5b61075f576040517f08c379a000000000000000000000000000000000000000000000000000000000815260040161075690612255565b60405180910390fd5b61076983836111e2565b505050565b61077f6107796111da565b8261129b565b6107be576040517f08c379a00000000000000000000000000000000000000000000000000000000081526004016107b590612355565b60405180910390fd5b6107c9838383611379565b505050565b60125481565b6107ef83838360405180602001604052806000815250610d84565b505050565b60118054610801906125fe565b80601f016020809104026020016040519081016040528092919081815260200182805461082d906125fe565b801561087a5780601f1061084f5761010080835404028352916020019161087a565b820191906000526020600020905b81548152906001019060200180831161085d57829003601f168201915b505050505081565b6000806008600084815260200190815260200160002060009054906101000a900473ffffffffffffffffffffffffffffffffffffffff169050600073ffffffffffffffffffffffffffffffffffffffff168173ffffffffffffffffffffffffffffffffffffffff16141561092b576040517f08c379a000000000000000000000000000000000000000000000000000000000815260040161092290612295565b60405180910390fd5b80915050919050565b60008073ffffffffffffffffffffffffffffffffffffffff168273ffffffffffffffffffffffffffffffffffffffff1614156109a5576040517f08c379a000000000000000000000000000000000000000000000000000000000815260040161099c90612275565b60405180910390fd5b600960008373ffffffffffffffffffffffffffffffffffffffff1673ffffffffffffffffffffffffffffffffffffffff168152602001908152602001600020549050919050565b6109f46111da565b73ffffffffffffffffffffffffffffffffffffffff16610a12610aa7565b73ffffffffffffffffffffffffffffffffffffffff1614610a68576040517f08c379a0000000000000000000000000000000000000000000000000000000008152600401610a5f906122d5565b60405180910390fd5b610a7260006115d5565b565b60136020528060005260406000206000915054906101000a900473ffffffffffffffffffffffffffffffffffffffff1681565b6000600c60009054906101000a900473ffffffffffffffffffffffffffffffffffffffff16905090565b606060078054610ae0906125fe565b80601f0160208091040260200160405190810160405280929190818152602001828054610b0c906125fe565b8015610b595780601f10610b2e57610100808354040283529160200191610b59565b820191906000526020600020905b815481529060010190602001808311610b3c57829003601f168201915b5050505050905090565b610b6b6111da565b73ffffffffffffffffffffffffffffffffffffffff168273ffffffffffffffffffffffffffffffffffffffff161415610bd9576040517f08c379a0000000000000000000000000000000000000000000000000000000008152600401610bd090612215565b60405180910390fd5b80600b6000610be66111da565b73ffffffffffffffffffffffffffffffffffffffff1673ffffffffffffffffffffffffffffffffffffffff16815260200190815260200160002060008473ffffffffffffffffffffffffffffffffffffffff1673ffffffffffffffffffffffffffffffffffffffff16815260200190815260200160002060006101000a81548160ff0219169083151502179055508173ffffffffffffffffffffffffffffffffffffffff16610c936111da565b73ffffffffffffffffffffffffffffffffffffffff167f17307eab39ab6107e8899845ad3d59bd9653f200f220920489ca2b5937696c3183604051610cd89190612178565b60405180910390a35050565b60156020528060005260406000206000915090508054610d03906125fe565b80601f0160208091040260200160405190810160405280929190818152602001828054610d2f906125fe565b8015610d7c5780601f10610d5157610100808354040283529160200191610d7c565b820191906000526020600020905b815481529060010190602001808311610d5f57829003601f168201915b505050505081565b610d95610d8f6111da565b8361129b565b610dd4576040517f08c379a0000000000000000000000000000000000000000000000000000000008152600401610dcb90612355565b60405180910390fd5b610de08484848461169b565b50505050565b6060610df18261116e565b610e30576040517f08c379a0000000000000000000000000000000000000000000000000000000008152600401610e2790612315565b60405180910390fd5b6000601560008481526020019081526020016000208054610e50906125fe565b80601f0160208091040260200160405190810160405280929190818152602001828054610e7c906125fe565b8015610ec95780601f10610e9e57610100808354040283529160200191610ec9565b820191906000526020600020905b815481529060010190602001808311610eac57829003601f168201915b50505050509050610ef881604051602001610ee491906120b7565b6040516020818303038152906040526116f7565b604051602001610f0891906120ef565b604051602081830303815290604052915050919050565b6000600b60008473ffffffffffffffffffffffffffffffffffffffff1673ffffffffffffffffffffffffffffffffffffffff16815260200190815260200160002060008373ffffffffffffffffffffffffffffffffffffffff1673ffffffffffffffffffffffffffffffffffffffff16815260200190815260200160002060009054906101000a900460ff16905092915050565b610fbb6111da565b73ffffffffffffffffffffffffffffffffffffffff16610fd9610aa7565b73ffffffffffffffffffffffffffffffffffffffff161461102f576040517f08c379a0000000000000000000000000000000000000000000000000000000008152600401611026906122d5565b60405180910390fd5b600073ffffffffffffffffffffffffffffffffffffffff168173ffffffffffffffffffffffffffffffffffffffff16141561109f576040517f08c379a0000000000000000000000000000000000000000000000000000000008152600401611096906121d5565b60405180910390fd5b6110a8816115d5565b50565b60146020528060005260406000206000915054906101000a900460ff1681565b601060009054906101000a900473ffffffffffffffffffffffffffffffffffffffff1681565b600080823b905060008111915050919050565b60007f01ffc9a7000000000000000000000000000000000000000000000000000000007bffffffffffffffffffffffffffffffffffffffffffffffffffffffff1916827bffffffffffffffffffffffffffffffffffffffffffffffffffffffff1916149050919050565b60008073ffffffffffffffffffffffffffffffffffffffff166008600084815260200190815260200160002060009054906101000a900473ffffffffffffffffffffffffffffffffffffffff1673ffffffffffffffffffffffffffffffffffffffff1614159050919050565b600033905090565b81600a600083815260200190815260200160002060006101000a81548173ffffffffffffffffffffffffffffffffffffffff021916908373ffffffffffffffffffffffffffffffffffffffff160217905550808273ffffffffffffffffffffffffffffffffffffffff1661125583610882565b73ffffffffffffffffffffffffffffffffffffffff167f8c5be1e5ebec7d5bd14f71427d1e84f3dd0314c0f7b2291e5b200ac8c7c3b92560405160405180910390a45050565b60006112a68261116e565b6112e5576040517f08c379a00000000000000000000000000000000000000000000000000000000081526004016112dc90612235565b60405180910390fd5b60006112f083610882565b90508073ffffffffffffffffffffffffffffffffffffffff168473ffffffffffffffffffffffffffffffffffffffff16148061135f57508373ffffffffffffffffffffffffffffffffffffffff16611347846105d1565b73ffffffffffffffffffffffffffffffffffffffff16145b80611370575061136f8185610f1f565b5b91505092915050565b8273ffffffffffffffffffffffffffffffffffffffff1661139982610882565b73ffffffffffffffffffffffffffffffffffffffff16146113ef576040517f08c379a00000000000000000000000000000000000000000000000000000000081526004016113e6906122f5565b60405180910390fd5b600073ffffffffffffffffffffffffffffffffffffffff168273ffffffffffffffffffffffffffffffffffffffff16141561145f576040517f08c379a0000000000000000000000000000000000000000000000000000000008152600401611456906121f5565b60405180910390fd5b61146a838383611870565b6114756000826111e2565b6001600960008573ffffffffffffffffffffffffffffffffffffffff1673ffffffffffffffffffffffffffffffffffffffff16815260200190815260200160002060008282546114c5919061250a565b925050819055506001600960008473ffffffffffffffffffffffffffffffffffffffff1673ffffffffffffffffffffffffffffffffffffffff168152602001908152602001600020600082825461151c9190612429565b92505081905550816008600083815260200190815260200160002060006101000a81548173ffffffffffffffffffffffffffffffffffffffff021916908373ffffffffffffffffffffffffffffffffffffffff160217905550808273ffffffffffffffffffffffffffffffffffffffff168473ffffffffffffffffffffffffffffffffffffffff167fddf252ad1be2c89b69c2b068fc378daa952ba7f163c4a11628f55a4df523b3ef60405160405180910390a4505050565b6000600c60009054906101000a900473ffffffffffffffffffffffffffffffffffffffff16905081600c60006101000a81548173ffffffffffffffffffffffffffffffffffffffff021916908373ffffffffffffffffffffffffffffffffffffffff1602179055508173ffffffffffffffffffffffffffffffffffffffff168173ffffffffffffffffffffffffffffffffffffffff167f8be0079c531659141344cd1fd0a4f28419497f9722a3daafe3b4186f6b6457e060405160405180910390a35050565b6116a6848484611379565b6116b284848484611875565b6116f1576040517f08c379a00000000000000000000000000000000000000000000000000000000081526004016116e8906121b5565b60405180910390fd5b50505050565b606060008251141561171a5760405180602001604052806000815250905061186b565b6000604051806060016040528060408152602001612cac60409139905060006003600285516117499190612429565b611753919061247f565b600461175f91906124b0565b905060006020826117709190612429565b67ffffffffffffffff811115611789576117886126ee565b5b6040519080825280601f01601f1916602001820160405280156117bb5781602001600182028036833780820191505090505b509050818152600183018586518101602084015b8183101561182a576003830192508251603f8160121c168501518253600182019150603f81600c1c168501518253600182019150603f8160061c168501518253600182019150603f81168501518253600182019150506117cf565b60038951066001811461184457600281146118545761185f565b613d3d60f01b600283035261185f565b603d60f81b60018303525b50505050508093505050505b919050565b505050565b60006118968473ffffffffffffffffffffffffffffffffffffffff166110f1565b156119ff578373ffffffffffffffffffffffffffffffffffffffff1663150b7a026118bf6111da565b8786866040518563ffffffff1660e01b81526004016118e1949392919061212c565b602060405180830381600087803b1580156118fb57600080fd5b505af192505050801561192c57506040513d601f19601f820116820180604052508101906119299190611d17565b60015b6119af573d806000811461195c576040519150601f19603f3d011682016040523d82523d6000602084013e611961565b606091505b506000815114156119a7576040517f08c379a000000000000000000000000000000000000000000000000000000000815260040161199e906121b5565b60405180910390fd5b805181602001fd5b63150b7a0260e01b7bffffffffffffffffffffffffffffffffffffffffffffffffffffffff1916817bffffffffffffffffffffffffffffffffffffffffffffffffffffffff191614915050611a04565b600190505b949350505050565b6000611a1f611a1a846123b5565b612390565b905082815260208101848484011115611a3b57611a3a612722565b5b611a468482856125bc565b509392505050565b600081359050611a5d81612c38565b92915050565b600081359050611a7281612c4f565b92915050565b600081359050611a8781612c66565b92915050565b600081359050611a9c81612c7d565b92915050565b600081519050611ab181612c7d565b92915050565b600082601f830112611acc57611acb61271d565b5b8135611adc848260208601611a0c565b91505092915050565b600081359050611af481612c94565b92915050565b600060208284031215611b1057611b0f61272c565b5b6000611b1e84828501611a4e565b91505092915050565b60008060408385031215611b3e57611b3d61272c565b5b6000611b4c85828601611a4e565b9250506020611b5d85828601611a4e565b9150509250929050565b600080600060608486031215611b8057611b7f61272c565b5b6000611b8e86828701611a4e565b9350506020611b9f86828701611a4e565b9250506040611bb086828701611ae5565b9150509250925092565b60008060008060808587031215611bd457611bd361272c565b5b6000611be287828801611a4e565b9450506020611bf387828801611a4e565b9350506040611c0487828801611ae5565b925050606085013567ffffffffffffffff811115611c2557611c24612727565b5b611c3187828801611ab7565b91505092959194509250565b60008060408385031215611c5457611c5361272c565b5b6000611c6285828601611a4e565b9250506020611c7385828601611a63565b9150509250929050565b60008060408385031215611c9457611c9361272c565b5b6000611ca285828601611a4e565b9250506020611cb385828601611ae5565b9150509250929050565b600060208284031215611cd357611cd261272c565b5b6000611ce184828501611a78565b91505092915050565b600060208284031215611d0057611cff61272c565b5b6000611d0e84828501611a8d565b91505092915050565b600060208284031215611d2d57611d2c61272c565b5b6000611d3b84828501611aa2565b91505092915050565b600060208284031215611d5a57611d5961272c565b5b6000611d6884828501611ae5565b91505092915050565b611d7a8161253e565b82525050565b611d8981612550565b82525050565b6000611d9a826123e6565b611da481856123fc565b9350611db48185602086016125cb565b611dbd81612731565b840191505092915050565b6000611dd3826123f1565b611ddd818561240d565b9350611ded8185602086016125cb565b611df681612731565b840191505092915050565b6000611e0c826123f1565b611e16818561241e565b9350611e268185602086016125cb565b80840191505092915050565b6000611e3f60328361240d565b9150611e4a82612742565b604082019050919050565b6000611e6260268361240d565b9150611e6d82612791565b604082019050919050565b6000611e8560248361240d565b9150611e90826127e0565b604082019050919050565b6000611ea860198361240d565b9150611eb38261282f565b602082019050919050565b6000611ecb602c8361240d565b9150611ed682612858565b604082019050919050565b6000611eee60388361240d565b9150611ef9826128a7565b604082019050919050565b6000611f11602a8361240d565b9150611f1c826128f6565b604082019050919050565b6000611f3460298361240d565b9150611f3f82612945565b604082019050919050565b6000611f5760258361241e565b9150611f6282612994565b602582019050919050565b6000611f7a60028361241e565b9150611f85826129e3565b600282019050919050565b6000611f9d602c8361240d565b9150611fa882612a0c565b604082019050919050565b6000611fc060208361240d565b9150611fcb82612a5b565b602082019050919050565b6000611fe360298361240d565b9150611fee82612a84565b604082019050919050565b6000612006602f8361240d565b915061201182612ad3565b604082019050919050565b600061202960218361240d565b915061203482612b22565b604082019050919050565b600061204c60338361241e565b915061205782612b71565b603382019050919050565b600061206f601d8361241e565b915061207a82612bc0565b601d82019050919050565b600061209260318361240d565b915061209d82612be9565b604082019050919050565b6120b1816125b2565b82525050565b60006120c28261203f565b91506120cd82611f4a565b91506120d98284611e01565b91506120e482611f6d565b915081905092915050565b60006120fa82612062565b91506121068284611e01565b915081905092915050565b60006020820190506121266000830184611d71565b92915050565b60006080820190506121416000830187611d71565b61214e6020830186611d71565b61215b60408301856120a8565b818103606083015261216d8184611d8f565b905095945050505050565b600060208201905061218d6000830184611d80565b92915050565b600060208201905081810360008301526121ad8184611dc8565b905092915050565b600060208201905081810360008301526121ce81611e32565b9050919050565b600060208201905081810360008301526121ee81611e55565b9050919050565b6000602082019050818103600083015261220e81611e78565b9050919050565b6000602082019050818103600083015261222e81611e9b565b9050919050565b6000602082019050818103600083015261224e81611ebe565b9050919050565b6000602082019050818103600083015261226e81611ee1565b9050919050565b6000602082019050818103600083015261228e81611f04565b9050919050565b600060208201905081810360008301526122ae81611f27565b9050919050565b600060208201905081810360008301526122ce81611f90565b9050919050565b600060208201905081810360008301526122ee81611fb3565b9050919050565b6000602082019050818103600083015261230e81611fd6565b9050919050565b6000602082019050818103600083015261232e81611ff9565b9050919050565b6000602082019050818103600083015261234e8161201c565b9050919050565b6000602082019050818103600083015261236e81612085565b9050919050565b600060208201905061238a60008301846120a8565b92915050565b600061239a6123ab565b90506123a68282612630565b919050565b6000604051905090565b600067ffffffffffffffff8211156123d0576123cf6126ee565b5b6123d982612731565b9050602081019050919050565b600081519050919050565b600081519050919050565b600082825260208201905092915050565b600082825260208201905092915050565b600081905092915050565b6000612434826125b2565b915061243f836125b2565b9250827fffffffffffffffffffffffffffffffffffffffffffffffffffffffffffffffff0382111561247457612473612661565b5b828201905092915050565b600061248a826125b2565b9150612495836125b2565b9250826124a5576124a4612690565b5b828204905092915050565b60006124bb826125b2565b91506124c6836125b2565b9250817fffffffffffffffffffffffffffffffffffffffffffffffffffffffffffffffff04831182151516156124ff576124fe612661565b5b828202905092915050565b6000612515826125b2565b9150612520836125b2565b92508282101561253357612532612661565b5b828203905092915050565b600061254982612592565b9050919050565b60008115159050919050565b6000819050919050565b60007fffffffff0000000000000000000000000000000000000000000000000000000082169050919050565b600073ffffffffffffffffffffffffffffffffffffffff82169050919050565b6000819050919050565b82818337600083830152505050565b60005b838110156125e95780820151818401526020810190506125ce565b838111156125f8576000848401525b50505050565b6000600282049050600182168061261657607f821691505b6020821081141561262a576126296126bf565b5b50919050565b61263982612731565b810181811067ffffffffffffffff82111715612658576126576126ee565b5b80604052505050565b7f4e487b7100000000000000000000000000000000000000000000000000000000600052601160045260246000fd5b7f4e487b7100000000000000000000000000000000000000000000000000000000600052601260045260246000fd5b7f4e487b7100000000000000000000000000000000000000000000000000000000600052602260045260246000fd5b7f4e487b7100000000000000000000000000000000000000000000000000000000600052604160045260246000fd5b600080fd5b600080fd5b600080fd5b600080fd5b6000601f19601f8301169050919050565b7f4552433732313a207472616e7366657220746f206e6f6e20455243373231526560008201527f63656976657220696d706c656d656e7465720000000000000000000000000000602082015250565b7f4f776e61626c653a206e6577206f776e657220697320746865207a65726f206160008201527f6464726573730000000000000000000000000000000000000000000000000000602082015250565b7f4552433732313a207472616e7366657220746f20746865207a65726f2061646460008201527f7265737300000000000000000000000000000000000000000000000000000000602082015250565b7f4552433732313a20617070726f766520746f2063616c6c657200000000000000600082015250565b7f4552433732313a206f70657261746f7220717565727920666f72206e6f6e657860008201527f697374656e7420746f6b656e0000000000000000000000000000000000000000602082015250565b7f4552433732313a20617070726f76652063616c6c6572206973206e6f74206f7760008201527f6e6572206e6f7220617070726f76656420666f7220616c6c0000000000000000602082015250565b7f4552433732313a2062616c616e636520717565727920666f7220746865207a6560008201527f726f206164647265737300000000000000000000000000000000000000000000602082015250565b7f4552433732313a206f776e657220717565727920666f72206e6f6e657869737460008201527f656e7420746f6b656e0000000000000000000000000000000000000000000000602082015250565b7f226465736372697074696f6e223a224e6963652046696e6421222c2022696d6160008201527f6765223a22000000000000000000000000000000000000000000000000000000602082015250565b7f227d000000000000000000000000000000000000000000000000000000000000600082015250565b7f4552433732313a20617070726f76656420717565727920666f72206e6f6e657860008201527f697374656e7420746f6b656e0000000000000000000000000000000000000000602082015250565b7f4f776e61626c653a2063616c6c6572206973206e6f7420746865206f776e6572600082015250565b7f4552433732313a207472616e73666572206f6620746f6b656e2074686174206960008201527f73206e6f74206f776e0000000000000000000000000000000000000000000000602082015250565b7f4552433732314d657461646174613a2055524920717565727920666f72206e6f60008201527f6e6578697374656e7420746f6b656e0000000000000000000000000000000000602082015250565b7f4552433732313a20617070726f76616c20746f2063757272656e74206f776e6560008201527f7200000000000000000000000000000000000000000000000000000000000000602082015250565b7f7b226e616d65223a2022436861696e6c696e6b204861636b6174686f6e20536360008201527f6176656e6765722048756e74204e4654222c2000000000000000000000000000602082015250565b7f646174613a6170706c69636174696f6e2f6a736f6e3b6261736536342c000000600082015250565b7f4552433732313a207472616e736665722063616c6c6572206973206e6f74206f60008201527f776e6572206e6f7220617070726f766564000000000000000000000000000000602082015250565b612c418161253e565b8114612c4c57600080fd5b50565b612c5881612550565b8114612c6357600080fd5b50565b612c6f8161255c565b8114612c7a57600080fd5b50565b612c8681612566565b8114612c9157600080fd5b50565b612c9d816125b2565b8114612ca857600080fd5b5056fe4142434445464748494a4b4c4d4e4f505152535455565758595a6162636465666768696a6b6c6d6e6f707172737475767778797a303132333435363738392b2fa26469706673582212207d03f02a9791906086363c1b90ce488c99aec391364d283d7bcde6dba2f21b7b64736f6c63430008070033697066733a2f2f516d6247573970366f50637a32685052334676357742484c32436f4737655531456f577a3433576f556e68635735697066733a2f2f516d53393467686a6d574b614b505655786451765534596a546165636b32524c6459574a624d6a61464d4a414b66697066733a2f2f516d634c346e4372455a4270734844394e534853716175516a4c316b756157546537376f5a56626f387a55466755697066733a2f2f516d5532597076636465585a5179376933613570654b56465762337477677068643650624a54783453456a587854697066733a2f2f516d56414e7177676f71444653446d4a4438556e78676f70474e75677632784d56686d4a6b6e6731524d44503364",
  "devdoc": {
    "kind": "dev",
    "methods": {
      "approve(address,uint256)": {
        "details": "See {IERC721-approve}."
      },
      "balanceOf(address)": {
        "details": "See {IERC721-balanceOf}."
      },
      "getApproved(uint256)": {
        "details": "See {IERC721-getApproved}."
      },
      "isApprovedForAll(address,address)": {
        "details": "See {IERC721-isApprovedForAll}."
      },
      "name()": {
        "details": "See {IERC721Metadata-name}."
      },
      "owner()": {
        "details": "Returns the address of the current owner."
      },
      "ownerOf(uint256)": {
        "details": "See {IERC721-ownerOf}."
      },
      "renounceOwnership()": {
        "details": "Leaves the contract without owner. It will not be possible to call `onlyOwner` functions anymore. Can only be called by the current owner. NOTE: Renouncing ownership will leave the contract without an owner, thereby removing any functionality that is only available to the owner."
      },
      "safeTransferFrom(address,address,uint256)": {
        "details": "See {IERC721-safeTransferFrom}."
      },
      "safeTransferFrom(address,address,uint256,bytes)": {
        "details": "See {IERC721-safeTransferFrom}."
      },
      "setApprovalForAll(address,bool)": {
        "details": "See {IERC721-setApprovalForAll}."
      },
      "supportsInterface(bytes4)": {
        "details": "See {IERC165-supportsInterface}."
      },
      "symbol()": {
        "details": "See {IERC721Metadata-symbol}."
      },
      "tokenURI(uint256)": {
        "details": "See {IERC721Metadata-tokenURI}."
      },
      "transferFrom(address,address,uint256)": {
        "details": "See {IERC721-transferFrom}."
      },
      "transferOwnership(address)": {
        "details": "Transfers ownership of the contract to a new account (`newOwner`). Can only be called by the current owner."
      }
    },
    "version": 1
  },
  "userdoc": {
    "kind": "user",
    "methods": {},
    "version": 1
  },
  "storageLayout": {
    "storage": [
      {
        "astId": 318,
        "contract": "contracts/ScavengerHunt.sol:ScavengerHunt",
        "label": "ens",
        "offset": 0,
        "slot": "0",
        "type": "t_contract(ENSInterface)912"
      },
      {
        "astId": 320,
        "contract": "contracts/ScavengerHunt.sol:ScavengerHunt",
        "label": "ensNode",
        "offset": 0,
        "slot": "1",
        "type": "t_bytes32"
      },
      {
        "astId": 323,
        "contract": "contracts/ScavengerHunt.sol:ScavengerHunt",
        "label": "link",
        "offset": 0,
        "slot": "2",
        "type": "t_contract(LinkTokenInterface)1007"
      },
      {
        "astId": 326,
        "contract": "contracts/ScavengerHunt.sol:ScavengerHunt",
        "label": "oracle",
        "offset": 0,
        "slot": "3",
        "type": "t_contract(OperatorInterface)1089"
      },
      {
        "astId": 329,
        "contract": "contracts/ScavengerHunt.sol:ScavengerHunt",
        "label": "requestCount",
        "offset": 0,
        "slot": "4",
        "type": "t_uint256"
      },
      {
        "astId": 333,
        "contract": "contracts/ScavengerHunt.sol:ScavengerHunt",
        "label": "pendingRequests",
        "offset": 0,
        "slot": "5",
        "type": "t_mapping(t_bytes32,t_address)"
      },
      {
        "astId": 2223,
        "contract": "contracts/ScavengerHunt.sol:ScavengerHunt",
        "label": "_name",
        "offset": 0,
        "slot": "6",
        "type": "t_string_storage"
      },
      {
        "astId": 2225,
        "contract": "contracts/ScavengerHunt.sol:ScavengerHunt",
        "label": "_symbol",
        "offset": 0,
        "slot": "7",
        "type": "t_string_storage"
      },
      {
        "astId": 2229,
        "contract": "contracts/ScavengerHunt.sol:ScavengerHunt",
        "label": "_owners",
        "offset": 0,
        "slot": "8",
        "type": "t_mapping(t_uint256,t_address)"
      },
      {
        "astId": 2233,
        "contract": "contracts/ScavengerHunt.sol:ScavengerHunt",
        "label": "_balances",
        "offset": 0,
        "slot": "9",
        "type": "t_mapping(t_address,t_uint256)"
      },
      {
        "astId": 2237,
        "contract": "contracts/ScavengerHunt.sol:ScavengerHunt",
        "label": "_tokenApprovals",
        "offset": 0,
        "slot": "10",
        "type": "t_mapping(t_uint256,t_address)"
      },
      {
        "astId": 2243,
        "contract": "contracts/ScavengerHunt.sol:ScavengerHunt",
        "label": "_operatorApprovals",
        "offset": 0,
        "slot": "11",
        "type": "t_mapping(t_address,t_mapping(t_address,t_bool))"
      },
      {
        "astId": 2101,
        "contract": "contracts/ScavengerHunt.sol:ScavengerHunt",
        "label": "_owner",
        "offset": 0,
        "slot": "12",
        "type": "t_address"
      },
      {
        "astId": 3865,
        "contract": "contracts/ScavengerHunt.sol:ScavengerHunt",
        "label": "s_oracle",
        "offset": 0,
        "slot": "13",
        "type": "t_address"
      },
      {
        "astId": 3867,
        "contract": "contracts/ScavengerHunt.sol:ScavengerHunt",
        "label": "s_jobId",
        "offset": 0,
        "slot": "14",
        "type": "t_bytes32"
      },
      {
        "astId": 3869,
        "contract": "contracts/ScavengerHunt.sol:ScavengerHunt",
        "label": "s_fee",
        "offset": 0,
        "slot": "15",
        "type": "t_uint256"
      },
      {
        "astId": 3871,
        "contract": "contracts/ScavengerHunt.sol:ScavengerHunt",
        "label": "s_dao",
        "offset": 0,
        "slot": "16",
        "type": "t_address"
      },
      {
        "astId": 3873,
        "contract": "contracts/ScavengerHunt.sol:ScavengerHunt",
        "label": "s_passwordtwo",
        "offset": 0,
        "slot": "17",
        "type": "t_string_storage"
      },
      {
        "astId": 3875,
        "contract": "contracts/ScavengerHunt.sol:ScavengerHunt",
        "label": "s_variable",
        "offset": 0,
        "slot": "18",
        "type": "t_uint256"
      },
      {
        "astId": 3879,
        "contract": "contracts/ScavengerHunt.sol:ScavengerHunt",
        "label": "requestIdToAttemptee",
        "offset": 0,
        "slot": "19",
        "type": "t_mapping(t_bytes32,t_address)"
      },
      {
        "astId": 3883,
        "contract": "contracts/ScavengerHunt.sol:ScavengerHunt",
        "label": "tokenIdTaken",
        "offset": 0,
        "slot": "20",
        "type": "t_mapping(t_uint256,t_bool)"
      },
      {
        "astId": 3887,
        "contract": "contracts/ScavengerHunt.sol:ScavengerHunt",
        "label": "tokenIdToImageURI",
        "offset": 0,
        "slot": "21",
        "type": "t_mapping(t_uint256,t_string_storage)"
      }
    ],
    "types": {
      "t_address": {
        "encoding": "inplace",
        "label": "address",
        "numberOfBytes": "20"
      },
      "t_bool": {
        "encoding": "inplace",
        "label": "bool",
        "numberOfBytes": "1"
      },
      "t_bytes32": {
        "encoding": "inplace",
        "label": "bytes32",
        "numberOfBytes": "32"
      },
      "t_contract(ENSInterface)912": {
        "encoding": "inplace",
        "label": "contract ENSInterface",
        "numberOfBytes": "20"
      },
      "t_contract(LinkTokenInterface)1007": {
        "encoding": "inplace",
        "label": "contract LinkTokenInterface",
        "numberOfBytes": "20"
      },
      "t_contract(OperatorInterface)1089": {
        "encoding": "inplace",
        "label": "contract OperatorInterface",
        "numberOfBytes": "20"
      },
      "t_mapping(t_address,t_bool)": {
        "encoding": "mapping",
        "key": "t_address",
        "label": "mapping(address => bool)",
        "numberOfBytes": "32",
        "value": "t_bool"
      },
      "t_mapping(t_address,t_mapping(t_address,t_bool))": {
        "encoding": "mapping",
        "key": "t_address",
        "label": "mapping(address => mapping(address => bool))",
        "numberOfBytes": "32",
        "value": "t_mapping(t_address,t_bool)"
      },
      "t_mapping(t_address,t_uint256)": {
        "encoding": "mapping",
        "key": "t_address",
        "label": "mapping(address => uint256)",
        "numberOfBytes": "32",
        "value": "t_uint256"
      },
      "t_mapping(t_bytes32,t_address)": {
        "encoding": "mapping",
        "key": "t_bytes32",
        "label": "mapping(bytes32 => address)",
        "numberOfBytes": "32",
        "value": "t_address"
      },
      "t_mapping(t_uint256,t_address)": {
        "encoding": "mapping",
        "key": "t_uint256",
        "label": "mapping(uint256 => address)",
        "numberOfBytes": "32",
        "value": "t_address"
      },
      "t_mapping(t_uint256,t_bool)": {
        "encoding": "mapping",
        "key": "t_uint256",
        "label": "mapping(uint256 => bool)",
        "numberOfBytes": "32",
        "value": "t_bool"
      },
      "t_mapping(t_uint256,t_string_storage)": {
        "encoding": "mapping",
        "key": "t_uint256",
        "label": "mapping(uint256 => string)",
        "numberOfBytes": "32",
        "value": "t_string_storage"
      },
      "t_string_storage": {
        "encoding": "bytes",
        "label": "string",
        "numberOfBytes": "32"
      },
      "t_uint256": {
        "encoding": "inplace",
        "label": "uint256",
        "numberOfBytes": "32"
      }
    }
  }
}