{
  "address": "0xab3D585ad5269963738115c6F7f1ab8C492670d7",
  "abi": [
    {
      "inputs": [
        {
          "internalType": "address",
          "name": "oracle",
          "type": "address"
        },
        {
          "internalType": "bytes32",
          "name": "jobId",
          "type": "bytes32"
        },
        {
          "internalType": "uint256",
          "name": "fee",
          "type": "uint256"
        },
        {
          "internalType": "address",
          "name": "linkToken",
          "type": "address"
        }
      ],
      "stateMutability": "nonpayable",
      "type": "constructor"
    },
    {
      "anonymous": false,
      "inputs": [
        {
          "indexed": true,
          "internalType": "address",
          "name": "owner",
          "type": "address"
        },
        {
          "indexed": true,
          "internalType": "address",
          "name": "approved",
          "type": "address"
        },
        {
          "indexed": true,
          "internalType": "uint256",
          "name": "tokenId",
          "type": "uint256"
        }
      ],
      "name": "Approval",
      "type": "event"
    },
    {
      "anonymous": false,
      "inputs": [
        {
          "indexed": true,
          "internalType": "address",
          "name": "owner",
          "type": "address"
        },
        {
          "indexed": true,
          "internalType": "address",
          "name": "operator",
          "type": "address"
        },
        {
          "indexed": false,
          "internalType": "bool",
          "name": "approved",
          "type": "bool"
        }
      ],
      "name": "ApprovalForAll",
      "type": "event"
    },
    {
      "anonymous": false,
      "inputs": [
        {
          "indexed": true,
          "internalType": "bytes32",
          "name": "id",
          "type": "bytes32"
        }
      ],
      "name": "ChainlinkCancelled",
      "type": "event"
    },
    {
      "anonymous": false,
      "inputs": [
        {
          "indexed": true,
          "internalType": "bytes32",
          "name": "id",
          "type": "bytes32"
        }
      ],
      "name": "ChainlinkFulfilled",
      "type": "event"
    },
    {
      "anonymous": false,
      "inputs": [
        {
          "indexed": true,
          "internalType": "bytes32",
          "name": "id",
          "type": "bytes32"
        }
      ],
      "name": "ChainlinkRequested",
      "type": "event"
    },
    {
      "anonymous": false,
      "inputs": [
        {
          "indexed": true,
          "internalType": "address",
          "name": "from",
          "type": "address"
        },
        {
          "indexed": true,
          "internalType": "address",
          "name": "to",
          "type": "address"
        },
        {
          "indexed": true,
          "internalType": "uint256",
          "name": "tokenId",
          "type": "uint256"
        }
      ],
      "name": "Transfer",
      "type": "event"
    },
    {
      "anonymous": false,
      "inputs": [
        {
          "indexed": true,
          "internalType": "bytes32",
          "name": "requestId",
          "type": "bytes32"
        }
      ],
      "name": "attemptedPassword",
      "type": "event"
    },
    {
      "inputs": [
        {
          "internalType": "address",
          "name": "to",
          "type": "address"
        },
        {
          "internalType": "uint256",
          "name": "tokenId",
          "type": "uint256"
        }
      ],
      "name": "approve",
      "outputs": [],
      "stateMutability": "nonpayable",
      "type": "function"
    },
    {
      "inputs": [
        {
          "internalType": "string",
          "name": "password",
          "type": "string"
        }
      ],
      "name": "attemptPassword",
      "outputs": [
        {
          "internalType": "bytes32",
          "name": "requestId",
          "type": "bytes32"
        }
      ],
      "stateMutability": "nonpayable",
      "type": "function"
    },
    {
      "inputs": [
        {
          "internalType": "address",
          "name": "owner",
          "type": "address"
        }
      ],
      "name": "balanceOf",
      "outputs": [
        {
          "internalType": "uint256",
          "name": "",
          "type": "uint256"
        }
      ],
      "stateMutability": "view",
      "type": "function"
    },
    {
      "inputs": [
        {
          "internalType": "bytes32",
          "name": "requestId",
          "type": "bytes32"
        },
        {
          "internalType": "uint256",
          "name": "data",
          "type": "uint256"
        }
      ],
      "name": "fulfill",
      "outputs": [],
      "stateMutability": "nonpayable",
      "type": "function"
    },
    {
      "inputs": [
        {
          "internalType": "uint256",
          "name": "tokenId",
          "type": "uint256"
        }
      ],
      "name": "getApproved",
      "outputs": [
        {
          "internalType": "address",
          "name": "",
          "type": "address"
        }
      ],
      "stateMutability": "view",
      "type": "function"
    },
    {
      "inputs": [
        {
          "internalType": "address",
          "name": "owner",
          "type": "address"
        },
        {
          "internalType": "address",
          "name": "operator",
          "type": "address"
        }
      ],
      "name": "isApprovedForAll",
      "outputs": [
        {
          "internalType": "bool",
          "name": "",
          "type": "bool"
        }
      ],
      "stateMutability": "view",
      "type": "function"
    },
    {
      "inputs": [],
      "name": "name",
      "outputs": [
        {
          "internalType": "string",
          "name": "",
          "type": "string"
        }
      ],
      "stateMutability": "view",
      "type": "function"
    },
    {
      "inputs": [
        {
          "internalType": "uint256",
          "name": "tokenId",
          "type": "uint256"
        }
      ],
      "name": "ownerOf",
      "outputs": [
        {
          "internalType": "address",
          "name": "",
          "type": "address"
        }
      ],
      "stateMutability": "view",
      "type": "function"
    },
    {
      "inputs": [
        {
          "internalType": "bytes32",
          "name": "",
          "type": "bytes32"
        }
      ],
      "name": "requestIdToAttemptee",
      "outputs": [
        {
          "internalType": "address",
          "name": "",
          "type": "address"
        }
      ],
      "stateMutability": "view",
      "type": "function"
    },
    {
      "inputs": [
        {
          "internalType": "address",
          "name": "from",
          "type": "address"
        },
        {
          "internalType": "address",
          "name": "to",
          "type": "address"
        },
        {
          "internalType": "uint256",
          "name": "tokenId",
          "type": "uint256"
        }
      ],
      "name": "safeTransferFrom",
      "outputs": [],
      "stateMutability": "nonpayable",
      "type": "function"
    },
    {
      "inputs": [
        {
          "internalType": "address",
          "name": "from",
          "type": "address"
        },
        {
          "internalType": "address",
          "name": "to",
          "type": "address"
        },
        {
          "internalType": "uint256",
          "name": "tokenId",
          "type": "uint256"
        },
        {
          "internalType": "bytes",
          "name": "_data",
          "type": "bytes"
        }
      ],
      "name": "safeTransferFrom",
      "outputs": [],
      "stateMutability": "nonpayable",
      "type": "function"
    },
    {
      "inputs": [
        {
          "internalType": "address",
          "name": "operator",
          "type": "address"
        },
        {
          "internalType": "bool",
          "name": "approved",
          "type": "bool"
        }
      ],
      "name": "setApprovalForAll",
      "outputs": [],
      "stateMutability": "nonpayable",
      "type": "function"
    },
    {
      "inputs": [
        {
          "internalType": "bytes4",
          "name": "interfaceId",
          "type": "bytes4"
        }
      ],
      "name": "supportsInterface",
      "outputs": [
        {
          "internalType": "bool",
          "name": "",
          "type": "bool"
        }
      ],
      "stateMutability": "view",
      "type": "function"
    },
    {
      "inputs": [],
      "name": "symbol",
      "outputs": [
        {
          "internalType": "string",
          "name": "",
          "type": "string"
        }
      ],
      "stateMutability": "view",
      "type": "function"
    },
    {
      "inputs": [
        {
          "internalType": "uint256",
          "name": "",
          "type": "uint256"
        }
      ],
      "name": "tokenIdTaken",
      "outputs": [
        {
          "internalType": "bool",
          "name": "",
          "type": "bool"
        }
      ],
      "stateMutability": "view",
      "type": "function"
    },
    {
      "inputs": [
        {
          "internalType": "uint256",
          "name": "",
          "type": "uint256"
        }
      ],
      "name": "tokenIdToImageURI",
      "outputs": [
        {
          "internalType": "string",
          "name": "",
          "type": "string"
        }
      ],
      "stateMutability": "view",
      "type": "function"
    },
    {
      "inputs": [
        {
          "internalType": "uint256",
          "name": "tokenId",
          "type": "uint256"
        }
      ],
      "name": "tokenURI",
      "outputs": [
        {
          "internalType": "string",
          "name": "",
          "type": "string"
        }
      ],
      "stateMutability": "view",
      "type": "function"
    },
    {
      "inputs": [
        {
          "internalType": "address",
          "name": "from",
          "type": "address"
        },
        {
          "internalType": "address",
          "name": "to",
          "type": "address"
        },
        {
          "internalType": "uint256",
          "name": "tokenId",
          "type": "uint256"
        }
      ],
      "name": "transferFrom",
      "outputs": [],
      "stateMutability": "nonpayable",
      "type": "function"
    }
  ],
  "transactionHash": "0x15fb65edcafd3487e18ef0e8b0bd2fde2b5dce27906f5268dd89721e52989a18",
  "args": [
    "0xc57B33452b4F7BB189bB5AfaE9cc4aBa1f7a4FD8",
    {
      "0": 53,
      "1": 51,
      "2": 49,
      "3": 48,
      "4": 57,
      "5": 50,
      "6": 98,
      "7": 57,
      "8": 98,
      "9": 53,
      "10": 51,
      "11": 48,
      "12": 52,
      "13": 101,
      "14": 50,
      "15": 98,
      "16": 56,
      "17": 52,
      "18": 57,
      "19": 102,
      "20": 51,
      "21": 99,
      "22": 50,
      "23": 56,
      "24": 54,
      "25": 55,
      "26": 49,
      "27": 48,
      "28": 54,
      "29": 53,
      "30": 98,
      "31": 99
    },
    "1000000000000000000",
    "0x01BE23585060835E02B77ef475b0Cc51aA1e0709"
  ],
  "solcInputHash": "556dd82224264b6f60f2bca5c9408b3e",
  "bytecode": "0x608060405260016004553480156200001657600080fd5b50604051620044f2380380620044f283398181016040528101906200003c9190620004f9565b6040518060400160405280600d81526020017f53636176656e67657248756e74000000000000000000000000000000000000008152506040518060400160405280600281526020017f53480000000000000000000000000000000000000000000000000000000000008152508160069080519060200190620000c0929190620003d2565b508060079080519060200190620000d9929190620003d2565b505050600073ffffffffffffffffffffffffffffffffffffffff168173ffffffffffffffffffffffffffffffffffffffff161415620001285762000122620002e660201b60201c565b6200013a565b62000139816200038e60201b60201c565b5b83600c60006101000a81548173ffffffffffffffffffffffffffffffffffffffff021916908373ffffffffffffffffffffffffffffffffffffffff16021790555082600d8190555081600e819055506040518060600160405280603581526020016200445360359139601160008081526020019081526020016000209080519060200190620001cb929190620003d2565b506040518060600160405280603581526020016200441e60359139601160006001815260200190815260200160002090805190602001906200020f929190620003d2565b5060405180606001604052806035815260200162004488603591396011600060028152602001908152602001600020908051906020019062000253929190620003d2565b50604051806060016040528060358152602001620044bd603591396011600060038152602001908152602001600020908051906020019062000297929190620003d2565b50604051806060016040528060358152602001620043e96035913960116000600481526020019081526020016000209080519060200190620002db929190620003d2565b50505050506200066b565b6200038c73c89bd4e1632d3a43cb03aaad5262cbe4038bc57173ffffffffffffffffffffffffffffffffffffffff166338cc48316040518163ffffffff1660e01b815260040160206040518083038186803b1580156200034557600080fd5b505afa1580156200035a573d6000803e3d6000fd5b505050506040513d601f19601f82011682018060405250810190620003809190620004c7565b6200038e60201b60201c565b565b80600260006101000a81548173ffffffffffffffffffffffffffffffffffffffff021916908373ffffffffffffffffffffffffffffffffffffffff16021790555050565b828054620003e090620005b3565b90600052602060002090601f01602090048101928262000404576000855562000450565b82601f106200041f57805160ff191683800117855562000450565b8280016001018555821562000450579182015b828111156200044f57825182559160200191906001019062000432565b5b5090506200045f919062000463565b5090565b5b808211156200047e57600081600090555060010162000464565b5090565b60008151905062000493816200061d565b92915050565b600081519050620004aa8162000637565b92915050565b600081519050620004c18162000651565b92915050565b600060208284031215620004e057620004df62000618565b5b6000620004f08482850162000482565b91505092915050565b6000806000806080858703121562000516576200051562000618565b5b6000620005268782880162000482565b9450506020620005398782880162000499565b93505060406200054c87828801620004b0565b92505060606200055f8782880162000482565b91505092959194509250565b6000620005788262000589565b9050919050565b6000819050919050565b600073ffffffffffffffffffffffffffffffffffffffff82169050919050565b6000819050919050565b60006002820490506001821680620005cc57607f821691505b60208210811415620005e357620005e2620005e9565b5b50919050565b7f4e487b7100000000000000000000000000000000000000000000000000000000600052602260045260246000fd5b600080fd5b62000628816200056b565b81146200063457600080fd5b50565b62000642816200057f565b81146200064e57600080fd5b50565b6200065c81620005a9565b81146200066857600080fd5b50565b613d6e806200067b6000396000f3fe608060405234801561001057600080fd5b50600436106101165760003560e01c806370a08231116100a2578063b62b793911610071578063b62b793914610303578063b88d4fde14610333578063c87b56dd1461034f578063e985e9c51461037f578063f5addf9d146103af57610116565b806370a08231146102695780637c76f0451461029957806395d89b41146102c9578063a22cb465146102e757610116565b806323b872dd116100e957806323b872dd146101b557806342842e0e146101d15780634357855e146101ed5780636352211e146102095780636d1a01011461023957610116565b806301ffc9a71461011b57806306fdde031461014b578063081812fc14610169578063095ea7b314610199575b600080fd5b610135600480360381019061013091906127dd565b6103df565b6040516101429190612e58565b60405180910390f35b6101536104c1565b6040516101609190612e8e565b60405180910390f35b610183600480360381019061017e9190612880565b610553565b6040516101909190612d2e565b60405180910390f35b6101b360048036038101906101ae9190612703565b6105d8565b005b6101cf60048036038101906101ca91906125ed565b6106f0565b005b6101eb60048036038101906101e691906125ed565b610750565b005b6102076004803603810190610202919061279d565b610770565b005b610223600480360381019061021e9190612880565b61094a565b6040516102309190612d2e565b60405180910390f35b610253600480360381019061024e9190612837565b6109fc565b6040516102609190612e73565b60405180910390f35b610283600480360381019061027e9190612580565b610b15565b60405161029091906130d0565b60405180910390f35b6102b360048036038101906102ae9190612770565b610bcd565b6040516102c09190612d2e565b60405180910390f35b6102d1610c00565b6040516102de9190612e8e565b60405180910390f35b61030160048036038101906102fc91906126c3565b610c92565b005b61031d60048036038101906103189190612880565b610e13565b60405161032a9190612e8e565b60405180910390f35b61034d60048036038101906103489190612640565b610eb3565b005b61036960048036038101906103649190612880565b610f15565b6040516103769190612e8e565b60405180910390f35b610399600480360381019061039491906125ad565b61104e565b6040516103a69190612e58565b60405180910390f35b6103c960048036038101906103c49190612880565b6110e2565b6040516103d69190612e58565b60405180910390f35b60007f80ac58cd000000000000000000000000000000000000000000000000000000007bffffffffffffffffffffffffffffffffffffffffffffffffffffffff1916827bffffffffffffffffffffffffffffffffffffffffffffffffffffffff191614806104aa57507f5b5e139f000000000000000000000000000000000000000000000000000000007bffffffffffffffffffffffffffffffffffffffffffffffffffffffff1916827bffffffffffffffffffffffffffffffffffffffffffffffffffffffff1916145b806104ba57506104b982611102565b5b9050919050565b6060600680546104d090613531565b80601f01602080910402602001604051908101604052809291908181526020018280546104fc90613531565b80156105495780601f1061051e57610100808354040283529160200191610549565b820191906000526020600020905b81548152906001019060200180831161052c57829003601f168201915b5050505050905090565b600061055e8261116c565b61059d576040517f08c379a000000000000000000000000000000000000000000000000000000000815260040161059490612ff0565b60405180910390fd5b600a600083815260200190815260200160002060009054906101000a900473ffffffffffffffffffffffffffffffffffffffff169050919050565b60006105e38261094a565b90508073ffffffffffffffffffffffffffffffffffffffff168373ffffffffffffffffffffffffffffffffffffffff161415610654576040517f08c379a000000000000000000000000000000000000000000000000000000000815260040161064b90613050565b60405180910390fd5b8073ffffffffffffffffffffffffffffffffffffffff166106736111d8565b73ffffffffffffffffffffffffffffffffffffffff1614806106a257506106a18161069c6111d8565b61104e565b5b6106e1576040517f08c379a00000000000000000000000000000000000000000000000000000000081526004016106d890612f70565b60405180910390fd5b6106eb83836111e0565b505050565b6107016106fb6111d8565b82611299565b610740576040517f08c379a000000000000000000000000000000000000000000000000000000000815260040161073790613090565b60405180910390fd5b61074b838383611377565b505050565b61076b83838360405180602001604052806000815250610eb3565b505050565b816005600082815260200190815260200160002060009054906101000a900473ffffffffffffffffffffffffffffffffffffffff1673ffffffffffffffffffffffffffffffffffffffff163373ffffffffffffffffffffffffffffffffffffffff1614610812576040517f08c379a0000000000000000000000000000000000000000000000000000000008152600401610809906130b0565b60405180910390fd5b6005600082815260200190815260200160002060006101000a81549073ffffffffffffffffffffffffffffffffffffffff0219169055807f7cc135e0cebb02c3480ae5d74d377283180a2601f8f644edf7987b009316c63a60405160405180910390a2600015156010600084815260200190815260200160002060009054906101000a900460ff161515146108dc576040517f08c379a00000000000000000000000000000000000000000000000000000000081526004016108d390613070565b60405180910390fd5b60016010600084815260200190815260200160002060006101000a81548160ff021916908315150217905550610945600f600085815260200190815260200160002060009054906101000a900473ffffffffffffffffffffffffffffffffffffffff16836115d3565b505050565b6000806008600084815260200190815260200160002060009054906101000a900473ffffffffffffffffffffffffffffffffffffffff169050600073ffffffffffffffffffffffffffffffffffffffff168173ffffffffffffffffffffffffffffffffffffffff1614156109f3576040517f08c379a00000000000000000000000000000000000000000000000000000000081526004016109ea90612fb0565b60405180910390fd5b80915050919050565b600080610a13600d5430634357855e60e01b6115f1565b9050610a5f6040518060400160405280600881526020017f70617373776f726400000000000000000000000000000000000000000000000081525084836116229092919063ffffffff16565b610a8e600c60009054906101000a900473ffffffffffffffffffffffffffffffffffffffff1682600e54611655565b915033600f600084815260200190815260200160002060006101000a81548173ffffffffffffffffffffffffffffffffffffffff021916908373ffffffffffffffffffffffffffffffffffffffff160217905550817f1775a2d4bfea7545363bf30417f5bcf257307114c7044d8330849a6c91f43ab260405160405180910390a250919050565b60008073ffffffffffffffffffffffffffffffffffffffff168273ffffffffffffffffffffffffffffffffffffffff161415610b86576040517f08c379a0000000000000000000000000000000000000000000000000000000008152600401610b7d90612f90565b60405180910390fd5b600960008373ffffffffffffffffffffffffffffffffffffffff1673ffffffffffffffffffffffffffffffffffffffff168152602001908152602001600020549050919050565b600f6020528060005260406000206000915054906101000a900473ffffffffffffffffffffffffffffffffffffffff1681565b606060078054610c0f90613531565b80601f0160208091040260200160405190810160405280929190818152602001828054610c3b90613531565b8015610c885780601f10610c5d57610100808354040283529160200191610c88565b820191906000526020600020905b815481529060010190602001808311610c6b57829003601f168201915b5050505050905090565b610c9a6111d8565b73ffffffffffffffffffffffffffffffffffffffff168273ffffffffffffffffffffffffffffffffffffffff161415610d08576040517f08c379a0000000000000000000000000000000000000000000000000000000008152600401610cff90612f30565b60405180910390fd5b80600b6000610d156111d8565b73ffffffffffffffffffffffffffffffffffffffff1673ffffffffffffffffffffffffffffffffffffffff16815260200190815260200160002060008473ffffffffffffffffffffffffffffffffffffffff1673ffffffffffffffffffffffffffffffffffffffff16815260200190815260200160002060006101000a81548160ff0219169083151502179055508173ffffffffffffffffffffffffffffffffffffffff16610dc26111d8565b73ffffffffffffffffffffffffffffffffffffffff167f17307eab39ab6107e8899845ad3d59bd9653f200f220920489ca2b5937696c3183604051610e079190612e58565b60405180910390a35050565b60116020528060005260406000206000915090508054610e3290613531565b80601f0160208091040260200160405190810160405280929190818152602001828054610e5e90613531565b8015610eab5780601f10610e8057610100808354040283529160200191610eab565b820191906000526020600020905b815481529060010190602001808311610e8e57829003601f168201915b505050505081565b610ec4610ebe6111d8565b83611299565b610f03576040517f08c379a0000000000000000000000000000000000000000000000000000000008152600401610efa90613090565b60405180910390fd5b610f0f84848484611675565b50505050565b6060610f208261116c565b610f5f576040517f08c379a0000000000000000000000000000000000000000000000000000000008152600401610f5690613030565b60405180910390fd5b6000601160008481526020019081526020016000208054610f7f90613531565b80601f0160208091040260200160405190810160405280929190818152602001828054610fab90613531565b8015610ff85780601f10610fcd57610100808354040283529160200191610ff8565b820191906000526020600020905b815481529060010190602001808311610fdb57829003601f168201915b50505050509050611027816040516020016110139190612cd4565b6040516020818303038152906040526116d1565b6040516020016110379190612d0c565b604051602081830303815290604052915050919050565b6000600b60008473ffffffffffffffffffffffffffffffffffffffff1673ffffffffffffffffffffffffffffffffffffffff16815260200190815260200160002060008373ffffffffffffffffffffffffffffffffffffffff1673ffffffffffffffffffffffffffffffffffffffff16815260200190815260200160002060009054906101000a900460ff16905092915050565b60106020528060005260406000206000915054906101000a900460ff1681565b60007f01ffc9a7000000000000000000000000000000000000000000000000000000007bffffffffffffffffffffffffffffffffffffffffffffffffffffffff1916827bffffffffffffffffffffffffffffffffffffffffffffffffffffffff1916149050919050565b60008073ffffffffffffffffffffffffffffffffffffffff166008600084815260200190815260200160002060009054906101000a900473ffffffffffffffffffffffffffffffffffffffff1673ffffffffffffffffffffffffffffffffffffffff1614159050919050565b600033905090565b81600a600083815260200190815260200160002060006101000a81548173ffffffffffffffffffffffffffffffffffffffff021916908373ffffffffffffffffffffffffffffffffffffffff160217905550808273ffffffffffffffffffffffffffffffffffffffff166112538361094a565b73ffffffffffffffffffffffffffffffffffffffff167f8c5be1e5ebec7d5bd14f71427d1e84f3dd0314c0f7b2291e5b200ac8c7c3b92560405160405180910390a45050565b60006112a48261116c565b6112e3576040517f08c379a00000000000000000000000000000000000000000000000000000000081526004016112da90612f50565b60405180910390fd5b60006112ee8361094a565b90508073ffffffffffffffffffffffffffffffffffffffff168473ffffffffffffffffffffffffffffffffffffffff16148061135d57508373ffffffffffffffffffffffffffffffffffffffff1661134584610553565b73ffffffffffffffffffffffffffffffffffffffff16145b8061136e575061136d818561104e565b5b91505092915050565b8273ffffffffffffffffffffffffffffffffffffffff166113978261094a565b73ffffffffffffffffffffffffffffffffffffffff16146113ed576040517f08c379a00000000000000000000000000000000000000000000000000000000081526004016113e490613010565b60405180910390fd5b600073ffffffffffffffffffffffffffffffffffffffff168273ffffffffffffffffffffffffffffffffffffffff16141561145d576040517f08c379a000000000000000000000000000000000000000000000000000000000815260040161145490612f10565b60405180910390fd5b61146883838361184a565b6114736000826111e0565b6001600960008573ffffffffffffffffffffffffffffffffffffffff1673ffffffffffffffffffffffffffffffffffffffff16815260200190815260200160002060008282546114c39190613407565b925050819055506001600960008473ffffffffffffffffffffffffffffffffffffffff1673ffffffffffffffffffffffffffffffffffffffff168152602001908152602001600020600082825461151a91906131b5565b92505081905550816008600083815260200190815260200160002060006101000a81548173ffffffffffffffffffffffffffffffffffffffff021916908373ffffffffffffffffffffffffffffffffffffffff160217905550808273ffffffffffffffffffffffffffffffffffffffff168473ffffffffffffffffffffffffffffffffffffffff167fddf252ad1be2c89b69c2b068fc378daa952ba7f163c4a11628f55a4df523b3ef60405160405180910390a4505050565b6115ed82826040518060200160405280600081525061184f565b5050565b6115f9612386565b611601612386565b611618858585846118aa909392919063ffffffff16565b9150509392505050565b61163982846080015161195a90919063ffffffff16565b61165081846080015161195a90919063ffffffff16565b505050565b600061166c8484846001634042994660e01b61197f565b90509392505050565b611680848484611377565b61168c84848484611be7565b6116cb576040517f08c379a00000000000000000000000000000000000000000000000000000000081526004016116c290612eb0565b60405180910390fd5b50505050565b60606000825114156116f457604051806020016040528060008152509050611845565b6000604051806060016040528060408152602001613cf9604091399050600060036002855161172391906131b5565b61172d919061320b565b600461173991906133ad565b9050600060208261174a91906131b5565b67ffffffffffffffff81111561176357611762613680565b5b6040519080825280601f01601f1916602001820160405280156117955781602001600182028036833780820191505090505b509050818152600183018586518101602084015b81831015611804576003830192508251603f8160121c168501518253600182019150603f81600c1c168501518253600182019150603f8160061c168501518253600182019150603f81168501518253600182019150506117a9565b60038951066001811461181e576002811461182e57611839565b613d3d60f01b6002830352611839565b603d60f81b60018303525b50505050508093505050505b919050565b505050565b6118598383611d7e565b6118666000848484611be7565b6118a5576040517f08c379a000000000000000000000000000000000000000000000000000000000815260040161189c90612eb0565b60405180910390fd5b505050565b6118b2612386565b6118c28560800151610100611f4c565b508385600001818152505082856020019073ffffffffffffffffffffffffffffffffffffffff16908173ffffffffffffffffffffffffffffffffffffffff16815250508185604001907bffffffffffffffffffffffffffffffffffffffffffffffffffffffff191690817bffffffffffffffffffffffffffffffffffffffffffffffffffffffff191681525050849050949350505050565b6119678260038351611fb6565b61197a81836120fb90919063ffffffff16565b505050565b600030600454604051602001611996929190612ca8565b604051602081830303815290604052805190602001209050600454856060018181525050856005600083815260200190815260200160002060006101000a81548173ffffffffffffffffffffffffffffffffffffffff021916908373ffffffffffffffffffffffffffffffffffffffff160217905550807fb5e6e01e79f91267dc17b4e6314d5d4d03593d2ceee0fbb452b750bd70ea5af960405160405180910390a2600082600080886000015189602001518a604001518b606001518a8d6080015160000151604051602401611a74989796959493929190612d95565b604051602081830303815290604052907bffffffffffffffffffffffffffffffffffffffffffffffffffffffff19166020820180517bffffffffffffffffffffffffffffffffffffffffffffffffffffffff83818316178352505050509050600260009054906101000a900473ffffffffffffffffffffffffffffffffffffffff1673ffffffffffffffffffffffffffffffffffffffff16634000aea08887846040518463ffffffff1660e01b8152600401611b3293929190612e1a565b602060405180830381600087803b158015611b4c57600080fd5b505af1158015611b60573d6000803e3d6000fd5b505050506040513d601f19601f82011682018060405250810190611b849190612743565b611bc3576040517f08c379a0000000000000000000000000000000000000000000000000000000008152600401611bba90612ef0565b60405180910390fd5b600160046000828254611bd691906131b5565b925050819055505095945050505050565b6000611c088473ffffffffffffffffffffffffffffffffffffffff1661211d565b15611d71578373ffffffffffffffffffffffffffffffffffffffff1663150b7a02611c316111d8565b8786866040518563ffffffff1660e01b8152600401611c539493929190612d49565b602060405180830381600087803b158015611c6d57600080fd5b505af1925050508015611c9e57506040513d601f19601f82011682018060405250810190611c9b919061280a565b60015b611d21573d8060008114611cce576040519150601f19603f3d011682016040523d82523d6000602084013e611cd3565b606091505b50600081511415611d19576040517f08c379a0000000000000000000000000000000000000000000000000000000008152600401611d1090612eb0565b60405180910390fd5b805181602001fd5b63150b7a0260e01b7bffffffffffffffffffffffffffffffffffffffffffffffffffffffff1916817bffffffffffffffffffffffffffffffffffffffffffffffffffffffff191614915050611d76565b600190505b949350505050565b600073ffffffffffffffffffffffffffffffffffffffff168273ffffffffffffffffffffffffffffffffffffffff161415611dee576040517f08c379a0000000000000000000000000000000000000000000000000000000008152600401611de590612fd0565b60405180910390fd5b611df78161116c565b15611e37576040517f08c379a0000000000000000000000000000000000000000000000000000000008152600401611e2e90612ed0565b60405180910390fd5b611e436000838361184a565b6001600960008473ffffffffffffffffffffffffffffffffffffffff1673ffffffffffffffffffffffffffffffffffffffff1681526020019081526020016000206000828254611e9391906131b5565b92505081905550816008600083815260200190815260200160002060006101000a81548173ffffffffffffffffffffffffffffffffffffffff021916908373ffffffffffffffffffffffffffffffffffffffff160217905550808273ffffffffffffffffffffffffffffffffffffffff16600073ffffffffffffffffffffffffffffffffffffffff167fddf252ad1be2c89b69c2b068fc378daa952ba7f163c4a11628f55a4df523b3ef60405160405180910390a45050565b611f546123f3565b6000602083611f6391906135c2565b14611f8f57602082611f7591906135c2565b6020611f819190613407565b82611f8c91906131b5565b91505b81836020018181525050604051808452600081528281016020016040525082905092915050565b60178111611fe357611fdd8160058460ff16901b60ff16178461213090919063ffffffff16565b506120f6565b60ff811161202557612008601860058460ff16901b178461213090919063ffffffff16565b5061201f816001856121509092919063ffffffff16565b506120f5565b61ffff81116120685761204b601960058460ff16901b178461213090919063ffffffff16565b50612062816002856121509092919063ffffffff16565b506120f4565b63ffffffff81116120ad57612090601a60058460ff16901b178461213090919063ffffffff16565b506120a7816004856121509092919063ffffffff16565b506120f3565b67ffffffffffffffff81116120f2576120d9601b60058460ff16901b178461213090919063ffffffff16565b506120f0816008856121509092919063ffffffff16565b505b5b5b5b5b505050565b6121036123f3565b61211583846000015151848551612172565b905092915050565b600080823b905060008111915050919050565b6121386123f3565b6121488384600001515184612261565b905092915050565b6121586123f3565b6121698485600001515185856122b8565b90509392505050565b61217a6123f3565b825182111561218857600080fd5b8460200151828561219991906131b5565b11156121ce576121cd8560026121be886020015188876121b991906131b5565b612346565b6121c891906133ad565b612362565b5b6000808651805187602083010193508088870111156121ed5787860182525b60208701925050505b60208410612234578051825260208261220f91906131b5565b915060208161221e91906131b5565b905060208461222d9190613407565b93506121f6565b60006001856020036101000a03905080198251168184511681811785525050508692505050949350505050565b6122696123f3565b8360200151831061228f5761228e846002866020015161228991906133ad565b612362565b5b83518051602085830101848153818614156122ab576001820183525b5050508390509392505050565b6122c06123f3565b846020015184836122d191906131b5565b11156122f9576122f885600286856122e991906131b5565b6122f391906133ad565b612362565b5b600060018361010061230b919061328f565b6123159190613407565b905085518386820101858319825116178152815185880111156123385784870182525b505085915050949350505050565b6000818311156123585782905061235c565b8190505b92915050565b6000826000015190506123758383611f4c565b5061238083826120fb565b50505050565b6040518060a0016040528060008019168152602001600073ffffffffffffffffffffffffffffffffffffffff16815260200160007bffffffffffffffffffffffffffffffffffffffffffffffffffffffff19168152602001600081526020016123ed6123f3565b81525090565b604051806040016040528060608152602001600081525090565b600061242061241b84613110565b6130eb565b90508281526020810184848401111561243c5761243b6136b4565b5b6124478482856134ef565b509392505050565b600061246261245d84613141565b6130eb565b90508281526020810184848401111561247e5761247d6136b4565b5b6124898482856134ef565b509392505050565b6000813590506124a081613c85565b92915050565b6000813590506124b581613c9c565b92915050565b6000815190506124ca81613c9c565b92915050565b6000813590506124df81613cb3565b92915050565b6000813590506124f481613cca565b92915050565b60008151905061250981613cca565b92915050565b600082601f830112612524576125236136af565b5b813561253484826020860161240d565b91505092915050565b600082601f830112612552576125516136af565b5b813561256284826020860161244f565b91505092915050565b60008135905061257a81613ce1565b92915050565b600060208284031215612596576125956136be565b5b60006125a484828501612491565b91505092915050565b600080604083850312156125c4576125c36136be565b5b60006125d285828601612491565b92505060206125e385828601612491565b9150509250929050565b600080600060608486031215612606576126056136be565b5b600061261486828701612491565b935050602061262586828701612491565b92505060406126368682870161256b565b9150509250925092565b6000806000806080858703121561265a576126596136be565b5b600061266887828801612491565b945050602061267987828801612491565b935050604061268a8782880161256b565b925050606085013567ffffffffffffffff8111156126ab576126aa6136b9565b5b6126b78782880161250f565b91505092959194509250565b600080604083850312156126da576126d96136be565b5b60006126e885828601612491565b92505060206126f9858286016124a6565b9150509250929050565b6000806040838503121561271a576127196136be565b5b600061272885828601612491565b92505060206127398582860161256b565b9150509250929050565b600060208284031215612759576127586136be565b5b6000612767848285016124bb565b91505092915050565b600060208284031215612786576127856136be565b5b6000612794848285016124d0565b91505092915050565b600080604083850312156127b4576127b36136be565b5b60006127c2858286016124d0565b92505060206127d38582860161256b565b9150509250929050565b6000602082840312156127f3576127f26136be565b5b6000612801848285016124e5565b91505092915050565b6000602082840312156128205761281f6136be565b5b600061282e848285016124fa565b91505092915050565b60006020828403121561284d5761284c6136be565b5b600082013567ffffffffffffffff81111561286b5761286a6136b9565b5b6128778482850161253d565b91505092915050565b600060208284031215612896576128956136be565b5b60006128a48482850161256b565b91505092915050565b6128b68161343b565b82525050565b6128c58161344d565b82525050565b6128d481613459565b82525050565b6128e381613463565b82525050565b60006128f482613172565b6128fe8185613188565b935061290e8185602086016134fe565b612917816136c3565b840191505092915050565b61293361292e826134b9565b613594565b82525050565b60006129448261317d565b61294e8185613199565b935061295e8185602086016134fe565b612967816136c3565b840191505092915050565b600061297d8261317d565b61298781856131aa565b93506129978185602086016134fe565b80840191505092915050565b60006129b06031836131aa565b91506129bb826136ee565b603182019050919050565b60006129d3603283613199565b91506129de8261373d565b604082019050919050565b60006129f6601c83613199565b9150612a018261378c565b602082019050919050565b6000612a19602383613199565b9150612a24826137b5565b604082019050919050565b6000612a3c602483613199565b9150612a4782613804565b604082019050919050565b6000612a5f601983613199565b9150612a6a82613853565b602082019050919050565b6000612a82602c83613199565b9150612a8d8261387c565b604082019050919050565b6000612aa56028836131aa565b9150612ab0826138cb565b602882019050919050565b6000612ac8603883613199565b9150612ad38261391a565b604082019050919050565b6000612aeb602a83613199565b9150612af682613969565b604082019050919050565b6000612b0e602983613199565b9150612b19826139b8565b604082019050919050565b6000612b316002836131aa565b9150612b3c82613a07565b600282019050919050565b6000612b54602083613199565b9150612b5f82613a30565b602082019050919050565b6000612b77602c83613199565b9150612b8282613a59565b604082019050919050565b6000612b9a602983613199565b9150612ba582613aa8565b604082019050919050565b6000612bbd602f83613199565b9150612bc882613af7565b604082019050919050565b6000612be0602183613199565b9150612beb82613b46565b604082019050919050565b6000612c03601d836131aa565b9150612c0e82613b95565b601d82019050919050565b6000612c26601483613199565b9150612c3182613bbe565b602082019050919050565b6000612c49603183613199565b9150612c5482613be7565b604082019050919050565b6000612c6c602883613199565b9150612c7782613c36565b604082019050919050565b612c8b816134af565b82525050565b612ca2612c9d826134af565b6135b8565b82525050565b6000612cb48285612922565b601482019150612cc48284612c91565b6020820191508190509392505050565b6000612cdf826129a3565b9150612cea82612a98565b9150612cf68284612972565b9150612d0182612b24565b915081905092915050565b6000612d1782612bf6565b9150612d238284612972565b915081905092915050565b6000602082019050612d4360008301846128ad565b92915050565b6000608082019050612d5e60008301876128ad565b612d6b60208301866128ad565b612d786040830185612c82565b8181036060830152612d8a81846128e9565b905095945050505050565b600061010082019050612dab600083018b6128ad565b612db8602083018a612c82565b612dc560408301896128cb565b612dd260608301886128ad565b612ddf60808301876128da565b612dec60a0830186612c82565b612df960c0830185612c82565b81810360e0830152612e0b81846128e9565b90509998505050505050505050565b6000606082019050612e2f60008301866128ad565b612e3c6020830185612c82565b8181036040830152612e4e81846128e9565b9050949350505050565b6000602082019050612e6d60008301846128bc565b92915050565b6000602082019050612e8860008301846128cb565b92915050565b60006020820190508181036000830152612ea88184612939565b905092915050565b60006020820190508181036000830152612ec9816129c6565b9050919050565b60006020820190508181036000830152612ee9816129e9565b9050919050565b60006020820190508181036000830152612f0981612a0c565b9050919050565b60006020820190508181036000830152612f2981612a2f565b9050919050565b60006020820190508181036000830152612f4981612a52565b9050919050565b60006020820190508181036000830152612f6981612a75565b9050919050565b60006020820190508181036000830152612f8981612abb565b9050919050565b60006020820190508181036000830152612fa981612ade565b9050919050565b60006020820190508181036000830152612fc981612b01565b9050919050565b60006020820190508181036000830152612fe981612b47565b9050919050565b6000602082019050818103600083015261300981612b6a565b9050919050565b6000602082019050818103600083015261302981612b8d565b9050919050565b6000602082019050818103600083015261304981612bb0565b9050919050565b6000602082019050818103600083015261306981612bd3565b9050919050565b6000602082019050818103600083015261308981612c19565b9050919050565b600060208201905081810360008301526130a981612c3c565b9050919050565b600060208201905081810360008301526130c981612c5f565b9050919050565b60006020820190506130e56000830184612c82565b92915050565b60006130f5613106565b90506131018282613563565b919050565b6000604051905090565b600067ffffffffffffffff82111561312b5761312a613680565b5b613134826136c3565b9050602081019050919050565b600067ffffffffffffffff82111561315c5761315b613680565b5b613165826136c3565b9050602081019050919050565b600081519050919050565b600081519050919050565b600082825260208201905092915050565b600082825260208201905092915050565b600081905092915050565b60006131c0826134af565b91506131cb836134af565b9250827fffffffffffffffffffffffffffffffffffffffffffffffffffffffffffffffff03821115613200576131ff6135f3565b5b828201905092915050565b6000613216826134af565b9150613221836134af565b92508261323157613230613622565b5b828204905092915050565b6000808291508390505b600185111561328657808604811115613262576132616135f3565b5b60018516156132715780820291505b808102905061327f856136e1565b9450613246565b94509492505050565b600061329a826134af565b91506132a5836134af565b92506132d27fffffffffffffffffffffffffffffffffffffffffffffffffffffffffffffffff84846132da565b905092915050565b6000826132ea57600190506133a6565b816132f857600090506133a6565b816001811461330e576002811461331857613347565b60019150506133a6565b60ff84111561332a576133296135f3565b5b8360020a915084821115613341576133406135f3565b5b506133a6565b5060208310610133831016604e8410600b841016171561337c5782820a905083811115613377576133766135f3565b5b6133a6565b613389848484600161323c565b925090508184048111156133a05761339f6135f3565b5b81810290505b9392505050565b60006133b8826134af565b91506133c3836134af565b9250817fffffffffffffffffffffffffffffffffffffffffffffffffffffffffffffffff04831182151516156133fc576133fb6135f3565b5b828202905092915050565b6000613412826134af565b915061341d836134af565b9250828210156134305761342f6135f3565b5b828203905092915050565b60006134468261348f565b9050919050565b60008115159050919050565b6000819050919050565b60007fffffffff0000000000000000000000000000000000000000000000000000000082169050919050565b600073ffffffffffffffffffffffffffffffffffffffff82169050919050565b6000819050919050565b60006134c4826134cb565b9050919050565b60006134d6826134dd565b9050919050565b60006134e88261348f565b9050919050565b82818337600083830152505050565b60005b8381101561351c578082015181840152602081019050613501565b8381111561352b576000848401525b50505050565b6000600282049050600182168061354957607f821691505b6020821081141561355d5761355c613651565b5b50919050565b61356c826136c3565b810181811067ffffffffffffffff8211171561358b5761358a613680565b5b80604052505050565b600061359f826135a6565b9050919050565b60006135b1826136d4565b9050919050565b6000819050919050565b60006135cd826134af565b91506135d8836134af565b9250826135e8576135e7613622565b5b828206905092915050565b7f4e487b7100000000000000000000000000000000000000000000000000000000600052601160045260246000fd5b7f4e487b7100000000000000000000000000000000000000000000000000000000600052601260045260246000fd5b7f4e487b7100000000000000000000000000000000000000000000000000000000600052602260045260246000fd5b7f4e487b7100000000000000000000000000000000000000000000000000000000600052604160045260246000fd5b600080fd5b600080fd5b600080fd5b600080fd5b6000601f19601f8301169050919050565b60008160601b9050919050565b60008160011c9050919050565b7f7b226e616d65223a2022436861696e6c696e6b204861636b6174686f6e20536360008201527f6176656e6765722048756e74204e465422000000000000000000000000000000602082015250565b7f4552433732313a207472616e7366657220746f206e6f6e20455243373231526560008201527f63656976657220696d706c656d656e7465720000000000000000000000000000602082015250565b7f4552433732313a20746f6b656e20616c7265616479206d696e74656400000000600082015250565b7f756e61626c6520746f207472616e73666572416e6443616c6c20746f206f726160008201527f636c650000000000000000000000000000000000000000000000000000000000602082015250565b7f4552433732313a207472616e7366657220746f20746865207a65726f2061646460008201527f7265737300000000000000000000000000000000000000000000000000000000602082015250565b7f4552433732313a20617070726f766520746f2063616c6c657200000000000000600082015250565b7f4552433732313a206f70657261746f7220717565727920666f72206e6f6e657860008201527f697374656e7420746f6b656e0000000000000000000000000000000000000000602082015250565b7f222c20226465736372697074696f6e223a224e6963652046696e6421222c202260008201527f696d616765223a22000000000000000000000000000000000000000000000000602082015250565b7f4552433732313a20617070726f76652063616c6c6572206973206e6f74206f7760008201527f6e6572206e6f7220617070726f76656420666f7220616c6c0000000000000000602082015250565b7f4552433732313a2062616c616e636520717565727920666f7220746865207a6560008201527f726f206164647265737300000000000000000000000000000000000000000000602082015250565b7f4552433732313a206f776e657220717565727920666f72206e6f6e657869737460008201527f656e7420746f6b656e0000000000000000000000000000000000000000000000602082015250565b7f227d000000000000000000000000000000000000000000000000000000000000600082015250565b7f4552433732313a206d696e7420746f20746865207a65726f2061646472657373600082015250565b7f4552433732313a20617070726f76656420717565727920666f72206e6f6e657860008201527f697374656e7420746f6b656e0000000000000000000000000000000000000000602082015250565b7f4552433732313a207472616e73666572206f6620746f6b656e2074686174206960008201527f73206e6f74206f776e0000000000000000000000000000000000000000000000602082015250565b7f4552433732314d657461646174613a2055524920717565727920666f72206e6f60008201527f6e6578697374656e7420746f6b656e0000000000000000000000000000000000602082015250565b7f4552433732313a20617070726f76616c20746f2063757272656e74206f776e6560008201527f7200000000000000000000000000000000000000000000000000000000000000602082015250565b7f646174613a6170706c69636174696f6e2f6a736f6e3b6261736536342c000000600082015250565b7f5468697320746f6b656e2069732074616b656e21000000000000000000000000600082015250565b7f4552433732313a207472616e736665722063616c6c6572206973206e6f74206f60008201527f776e6572206e6f7220617070726f766564000000000000000000000000000000602082015250565b7f536f75726365206d75737420626520746865206f7261636c65206f662074686560008201527f2072657175657374000000000000000000000000000000000000000000000000602082015250565b613c8e8161343b565b8114613c9957600080fd5b50565b613ca58161344d565b8114613cb057600080fd5b50565b613cbc81613459565b8114613cc757600080fd5b50565b613cd381613463565b8114613cde57600080fd5b50565b613cea816134af565b8114613cf557600080fd5b5056fe4142434445464748494a4b4c4d4e4f505152535455565758595a6162636465666768696a6b6c6d6e6f707172737475767778797a303132333435363738392b2fa2646970667358221220daf47d0a742080e043a8278cf01f2ab14ed16ea3bb04df03bed6cc52669050a664736f6c63430008070033697066733a2f2f516d6247573970366f50637a32685052334676357742484c32436f4737655531456f577a3433576f556e68635735697066733a2f2f516d53393467686a6d574b614b505655786451765534596a546165636b32524c6459574a624d6a61464d4a414b66697066733a2f2f516d634c346e4372455a4270734844394e534853716175516a4c316b756157546537376f5a56626f387a55466755697066733a2f2f516d5532597076636465585a5179376933613570654b56465762337477677068643650624a54783453456a587854697066733a2f2f516d56414e7177676f71444653446d4a4438556e78676f70474e75677632784d56686d4a6b6e6731524d44503364",
  "devdoc": {
    "kind": "dev",
    "methods": {
      "approve(address,uint256)": {
        "details": "See {IERC721-approve}."
      },
      "balanceOf(address)": {
        "details": "See {IERC721-balanceOf}."
      },
      "getApproved(uint256)": {
        "details": "See {IERC721-getApproved}."
      },
      "isApprovedForAll(address,address)": {
        "details": "See {IERC721-isApprovedForAll}."
      },
      "name()": {
        "details": "See {IERC721Metadata-name}."
      },
      "ownerOf(uint256)": {
        "details": "See {IERC721-ownerOf}."
      },
      "safeTransferFrom(address,address,uint256)": {
        "details": "See {IERC721-safeTransferFrom}."
      },
      "safeTransferFrom(address,address,uint256,bytes)": {
        "details": "See {IERC721-safeTransferFrom}."
      },
      "setApprovalForAll(address,bool)": {
        "details": "See {IERC721-setApprovalForAll}."
      },
      "supportsInterface(bytes4)": {
        "details": "See {IERC165-supportsInterface}."
      },
      "symbol()": {
        "details": "See {IERC721Metadata-symbol}."
      },
      "tokenURI(uint256)": {
        "details": "See {IERC721Metadata-tokenURI}."
      },
      "transferFrom(address,address,uint256)": {
        "details": "See {IERC721-transferFrom}."
      }
    },
    "version": 1
  },
  "userdoc": {
    "kind": "user",
    "methods": {
      "fulfill(bytes32,uint256)": {
        "notice": "Receive the response in the form of uint256"
      }
    },
    "version": 1
  },
  "storageLayout": {
    "storage": [
      {
        "astId": 318,
        "contract": "contracts/ScavengerHunt.sol:ScavengerHunt",
        "label": "ens",
        "offset": 0,
        "slot": "0",
        "type": "t_contract(ENSInterface)912"
      },
      {
        "astId": 320,
        "contract": "contracts/ScavengerHunt.sol:ScavengerHunt",
        "label": "ensNode",
        "offset": 0,
        "slot": "1",
        "type": "t_bytes32"
      },
      {
        "astId": 323,
        "contract": "contracts/ScavengerHunt.sol:ScavengerHunt",
        "label": "link",
        "offset": 0,
        "slot": "2",
        "type": "t_contract(LinkTokenInterface)1007"
      },
      {
        "astId": 326,
        "contract": "contracts/ScavengerHunt.sol:ScavengerHunt",
        "label": "oracle",
        "offset": 0,
        "slot": "3",
        "type": "t_contract(OperatorInterface)1089"
      },
      {
        "astId": 329,
        "contract": "contracts/ScavengerHunt.sol:ScavengerHunt",
        "label": "requestCount",
        "offset": 0,
        "slot": "4",
        "type": "t_uint256"
      },
      {
        "astId": 333,
        "contract": "contracts/ScavengerHunt.sol:ScavengerHunt",
        "label": "pendingRequests",
        "offset": 0,
        "slot": "5",
        "type": "t_mapping(t_bytes32,t_address)"
      },
      {
        "astId": 2119,
        "contract": "contracts/ScavengerHunt.sol:ScavengerHunt",
        "label": "_name",
        "offset": 0,
        "slot": "6",
        "type": "t_string_storage"
      },
      {
        "astId": 2121,
        "contract": "contracts/ScavengerHunt.sol:ScavengerHunt",
        "label": "_symbol",
        "offset": 0,
        "slot": "7",
        "type": "t_string_storage"
      },
      {
        "astId": 2125,
        "contract": "contracts/ScavengerHunt.sol:ScavengerHunt",
        "label": "_owners",
        "offset": 0,
        "slot": "8",
        "type": "t_mapping(t_uint256,t_address)"
      },
      {
        "astId": 2129,
        "contract": "contracts/ScavengerHunt.sol:ScavengerHunt",
        "label": "_balances",
        "offset": 0,
        "slot": "9",
        "type": "t_mapping(t_address,t_uint256)"
      },
      {
        "astId": 2133,
        "contract": "contracts/ScavengerHunt.sol:ScavengerHunt",
        "label": "_tokenApprovals",
        "offset": 0,
        "slot": "10",
        "type": "t_mapping(t_uint256,t_address)"
      },
      {
        "astId": 2139,
        "contract": "contracts/ScavengerHunt.sol:ScavengerHunt",
        "label": "_operatorApprovals",
        "offset": 0,
        "slot": "11",
        "type": "t_mapping(t_address,t_mapping(t_address,t_bool))"
      },
      {
        "astId": 3758,
        "contract": "contracts/ScavengerHunt.sol:ScavengerHunt",
        "label": "s_oracle",
        "offset": 0,
        "slot": "12",
        "type": "t_address"
      },
      {
        "astId": 3760,
        "contract": "contracts/ScavengerHunt.sol:ScavengerHunt",
        "label": "s_jobId",
        "offset": 0,
        "slot": "13",
        "type": "t_bytes32"
      },
      {
        "astId": 3762,
        "contract": "contracts/ScavengerHunt.sol:ScavengerHunt",
        "label": "s_fee",
        "offset": 0,
        "slot": "14",
        "type": "t_uint256"
      },
      {
        "astId": 3766,
        "contract": "contracts/ScavengerHunt.sol:ScavengerHunt",
        "label": "requestIdToAttemptee",
        "offset": 0,
        "slot": "15",
        "type": "t_mapping(t_bytes32,t_address)"
      },
      {
        "astId": 3770,
        "contract": "contracts/ScavengerHunt.sol:ScavengerHunt",
        "label": "tokenIdTaken",
        "offset": 0,
        "slot": "16",
        "type": "t_mapping(t_uint256,t_bool)"
      },
      {
        "astId": 3774,
        "contract": "contracts/ScavengerHunt.sol:ScavengerHunt",
        "label": "tokenIdToImageURI",
        "offset": 0,
        "slot": "17",
        "type": "t_mapping(t_uint256,t_string_storage)"
      }
    ],
    "types": {
      "t_address": {
        "encoding": "inplace",
        "label": "address",
        "numberOfBytes": "20"
      },
      "t_bool": {
        "encoding": "inplace",
        "label": "bool",
        "numberOfBytes": "1"
      },
      "t_bytes32": {
        "encoding": "inplace",
        "label": "bytes32",
        "numberOfBytes": "32"
      },
      "t_contract(ENSInterface)912": {
        "encoding": "inplace",
        "label": "contract ENSInterface",
        "numberOfBytes": "20"
      },
      "t_contract(LinkTokenInterface)1007": {
        "encoding": "inplace",
        "label": "contract LinkTokenInterface",
        "numberOfBytes": "20"
      },
      "t_contract(OperatorInterface)1089": {
        "encoding": "inplace",
        "label": "contract OperatorInterface",
        "numberOfBytes": "20"
      },
      "t_mapping(t_address,t_bool)": {
        "encoding": "mapping",
        "key": "t_address",
        "label": "mapping(address => bool)",
        "numberOfBytes": "32",
        "value": "t_bool"
      },
      "t_mapping(t_address,t_mapping(t_address,t_bool))": {
        "encoding": "mapping",
        "key": "t_address",
        "label": "mapping(address => mapping(address => bool))",
        "numberOfBytes": "32",
        "value": "t_mapping(t_address,t_bool)"
      },
      "t_mapping(t_address,t_uint256)": {
        "encoding": "mapping",
        "key": "t_address",
        "label": "mapping(address => uint256)",
        "numberOfBytes": "32",
        "value": "t_uint256"
      },
      "t_mapping(t_bytes32,t_address)": {
        "encoding": "mapping",
        "key": "t_bytes32",
        "label": "mapping(bytes32 => address)",
        "numberOfBytes": "32",
        "value": "t_address"
      },
      "t_mapping(t_uint256,t_address)": {
        "encoding": "mapping",
        "key": "t_uint256",
        "label": "mapping(uint256 => address)",
        "numberOfBytes": "32",
        "value": "t_address"
      },
      "t_mapping(t_uint256,t_bool)": {
        "encoding": "mapping",
        "key": "t_uint256",
        "label": "mapping(uint256 => bool)",
        "numberOfBytes": "32",
        "value": "t_bool"
      },
      "t_mapping(t_uint256,t_string_storage)": {
        "encoding": "mapping",
        "key": "t_uint256",
        "label": "mapping(uint256 => string)",
        "numberOfBytes": "32",
        "value": "t_string_storage"
      },
      "t_string_storage": {
        "encoding": "bytes",
        "label": "string",
        "numberOfBytes": "32"
      },
      "t_uint256": {
        "encoding": "inplace",
        "label": "uint256",
        "numberOfBytes": "32"
      }
    }
  }
}