{
  "address": "0xAc7E321ba4D4821Fa2259A166eF17044a7F2d521",
  "abi": [
    {
      "inputs": [
        {
          "internalType": "address",
          "name": "oracle",
          "type": "address"
        },
        {
          "internalType": "bytes32",
          "name": "jobId",
          "type": "bytes32"
        },
        {
          "internalType": "uint256",
          "name": "fee",
          "type": "uint256"
        },
        {
          "internalType": "address",
          "name": "linkToken",
          "type": "address"
        }
      ],
      "stateMutability": "nonpayable",
      "type": "constructor"
    },
    {
      "anonymous": false,
      "inputs": [
        {
          "indexed": true,
          "internalType": "address",
          "name": "owner",
          "type": "address"
        },
        {
          "indexed": true,
          "internalType": "address",
          "name": "approved",
          "type": "address"
        },
        {
          "indexed": true,
          "internalType": "uint256",
          "name": "tokenId",
          "type": "uint256"
        }
      ],
      "name": "Approval",
      "type": "event"
    },
    {
      "anonymous": false,
      "inputs": [
        {
          "indexed": true,
          "internalType": "address",
          "name": "owner",
          "type": "address"
        },
        {
          "indexed": true,
          "internalType": "address",
          "name": "operator",
          "type": "address"
        },
        {
          "indexed": false,
          "internalType": "bool",
          "name": "approved",
          "type": "bool"
        }
      ],
      "name": "ApprovalForAll",
      "type": "event"
    },
    {
      "anonymous": false,
      "inputs": [
        {
          "indexed": true,
          "internalType": "bytes32",
          "name": "id",
          "type": "bytes32"
        }
      ],
      "name": "ChainlinkCancelled",
      "type": "event"
    },
    {
      "anonymous": false,
      "inputs": [
        {
          "indexed": true,
          "internalType": "bytes32",
          "name": "id",
          "type": "bytes32"
        }
      ],
      "name": "ChainlinkFulfilled",
      "type": "event"
    },
    {
      "anonymous": false,
      "inputs": [
        {
          "indexed": true,
          "internalType": "bytes32",
          "name": "id",
          "type": "bytes32"
        }
      ],
      "name": "ChainlinkRequested",
      "type": "event"
    },
    {
      "anonymous": false,
      "inputs": [
        {
          "indexed": true,
          "internalType": "address",
          "name": "previousOwner",
          "type": "address"
        },
        {
          "indexed": true,
          "internalType": "address",
          "name": "newOwner",
          "type": "address"
        }
      ],
      "name": "OwnershipTransferred",
      "type": "event"
    },
    {
      "anonymous": false,
      "inputs": [
        {
          "indexed": true,
          "internalType": "address",
          "name": "from",
          "type": "address"
        },
        {
          "indexed": true,
          "internalType": "address",
          "name": "to",
          "type": "address"
        },
        {
          "indexed": true,
          "internalType": "uint256",
          "name": "tokenId",
          "type": "uint256"
        }
      ],
      "name": "Transfer",
      "type": "event"
    },
    {
      "anonymous": false,
      "inputs": [
        {
          "indexed": true,
          "internalType": "bytes32",
          "name": "requestId",
          "type": "bytes32"
        },
        {
          "indexed": true,
          "internalType": "string",
          "name": "password",
          "type": "string"
        }
      ],
      "name": "attemptedPassword",
      "type": "event"
    },
    {
      "inputs": [
        {
          "internalType": "address",
          "name": "to",
          "type": "address"
        },
        {
          "internalType": "uint256",
          "name": "tokenId",
          "type": "uint256"
        }
      ],
      "name": "approve",
      "outputs": [],
      "stateMutability": "nonpayable",
      "type": "function"
    },
    {
      "inputs": [
        {
          "internalType": "string",
          "name": "password",
          "type": "string"
        }
      ],
      "name": "attemptPassword",
      "outputs": [
        {
          "internalType": "bytes32",
          "name": "requestId",
          "type": "bytes32"
        }
      ],
      "stateMutability": "nonpayable",
      "type": "function"
    },
    {
      "inputs": [
        {
          "internalType": "address",
          "name": "owner",
          "type": "address"
        }
      ],
      "name": "balanceOf",
      "outputs": [
        {
          "internalType": "uint256",
          "name": "",
          "type": "uint256"
        }
      ],
      "stateMutability": "view",
      "type": "function"
    },
    {
      "inputs": [
        {
          "internalType": "address",
          "name": "calledContract",
          "type": "address"
        },
        {
          "internalType": "address",
          "name": "winner",
          "type": "address"
        }
      ],
      "name": "callengeFour",
      "outputs": [],
      "stateMutability": "nonpayable",
      "type": "function"
    },
    {
      "inputs": [
        {
          "internalType": "address",
          "name": "winner",
          "type": "address"
        }
      ],
      "name": "challengeThree",
      "outputs": [],
      "stateMutability": "nonpayable",
      "type": "function"
    },
    {
      "inputs": [
        {
          "internalType": "bytes32",
          "name": "requestId",
          "type": "bytes32"
        },
        {
          "internalType": "uint256",
          "name": "data",
          "type": "uint256"
        }
      ],
      "name": "fulfill",
      "outputs": [],
      "stateMutability": "nonpayable",
      "type": "function"
    },
    {
      "inputs": [
        {
          "internalType": "uint256",
          "name": "tokenId",
          "type": "uint256"
        }
      ],
      "name": "getApproved",
      "outputs": [
        {
          "internalType": "address",
          "name": "",
          "type": "address"
        }
      ],
      "stateMutability": "view",
      "type": "function"
    },
    {
      "inputs": [
        {
          "internalType": "address",
          "name": "owner",
          "type": "address"
        },
        {
          "internalType": "address",
          "name": "operator",
          "type": "address"
        }
      ],
      "name": "isApprovedForAll",
      "outputs": [
        {
          "internalType": "bool",
          "name": "",
          "type": "bool"
        }
      ],
      "stateMutability": "view",
      "type": "function"
    },
    {
      "inputs": [],
      "name": "name",
      "outputs": [
        {
          "internalType": "string",
          "name": "",
          "type": "string"
        }
      ],
      "stateMutability": "view",
      "type": "function"
    },
    {
      "inputs": [],
      "name": "owner",
      "outputs": [
        {
          "internalType": "address",
          "name": "",
          "type": "address"
        }
      ],
      "stateMutability": "view",
      "type": "function"
    },
    {
      "inputs": [
        {
          "internalType": "uint256",
          "name": "tokenId",
          "type": "uint256"
        }
      ],
      "name": "ownerOf",
      "outputs": [
        {
          "internalType": "address",
          "name": "",
          "type": "address"
        }
      ],
      "stateMutability": "view",
      "type": "function"
    },
    {
      "inputs": [],
      "name": "renounceOwnership",
      "outputs": [],
      "stateMutability": "nonpayable",
      "type": "function"
    },
    {
      "inputs": [
        {
          "internalType": "bytes32",
          "name": "",
          "type": "bytes32"
        }
      ],
      "name": "requestIdToAttemptee",
      "outputs": [
        {
          "internalType": "address",
          "name": "",
          "type": "address"
        }
      ],
      "stateMutability": "view",
      "type": "function"
    },
    {
      "inputs": [],
      "name": "s_dao",
      "outputs": [
        {
          "internalType": "address",
          "name": "",
          "type": "address"
        }
      ],
      "stateMutability": "view",
      "type": "function"
    },
    {
      "inputs": [],
      "name": "s_passwordtwo",
      "outputs": [
        {
          "internalType": "string",
          "name": "",
          "type": "string"
        }
      ],
      "stateMutability": "view",
      "type": "function"
    },
    {
      "inputs": [],
      "name": "s_variable",
      "outputs": [
        {
          "internalType": "uint256",
          "name": "",
          "type": "uint256"
        }
      ],
      "stateMutability": "view",
      "type": "function"
    },
    {
      "inputs": [
        {
          "internalType": "address",
          "name": "from",
          "type": "address"
        },
        {
          "internalType": "address",
          "name": "to",
          "type": "address"
        },
        {
          "internalType": "uint256",
          "name": "tokenId",
          "type": "uint256"
        }
      ],
      "name": "safeTransferFrom",
      "outputs": [],
      "stateMutability": "nonpayable",
      "type": "function"
    },
    {
      "inputs": [
        {
          "internalType": "address",
          "name": "from",
          "type": "address"
        },
        {
          "internalType": "address",
          "name": "to",
          "type": "address"
        },
        {
          "internalType": "uint256",
          "name": "tokenId",
          "type": "uint256"
        },
        {
          "internalType": "bytes",
          "name": "_data",
          "type": "bytes"
        }
      ],
      "name": "safeTransferFrom",
      "outputs": [],
      "stateMutability": "nonpayable",
      "type": "function"
    },
    {
      "inputs": [
        {
          "internalType": "address",
          "name": "operator",
          "type": "address"
        },
        {
          "internalType": "bool",
          "name": "approved",
          "type": "bool"
        }
      ],
      "name": "setApprovalForAll",
      "outputs": [],
      "stateMutability": "nonpayable",
      "type": "function"
    },
    {
      "inputs": [
        {
          "internalType": "address",
          "name": "dao",
          "type": "address"
        }
      ],
      "name": "setDAO",
      "outputs": [],
      "stateMutability": "nonpayable",
      "type": "function"
    },
    {
      "inputs": [
        {
          "internalType": "string",
          "name": "password",
          "type": "string"
        }
      ],
      "name": "setPasswordTwo",
      "outputs": [],
      "stateMutability": "nonpayable",
      "type": "function"
    },
    {
      "inputs": [
        {
          "internalType": "bytes4",
          "name": "interfaceId",
          "type": "bytes4"
        }
      ],
      "name": "supportsInterface",
      "outputs": [
        {
          "internalType": "bool",
          "name": "",
          "type": "bool"
        }
      ],
      "stateMutability": "view",
      "type": "function"
    },
    {
      "inputs": [],
      "name": "symbol",
      "outputs": [
        {
          "internalType": "string",
          "name": "",
          "type": "string"
        }
      ],
      "stateMutability": "view",
      "type": "function"
    },
    {
      "inputs": [
        {
          "internalType": "uint256",
          "name": "",
          "type": "uint256"
        }
      ],
      "name": "tokenIdTaken",
      "outputs": [
        {
          "internalType": "bool",
          "name": "",
          "type": "bool"
        }
      ],
      "stateMutability": "view",
      "type": "function"
    },
    {
      "inputs": [
        {
          "internalType": "uint256",
          "name": "",
          "type": "uint256"
        }
      ],
      "name": "tokenIdToImageURI",
      "outputs": [
        {
          "internalType": "string",
          "name": "",
          "type": "string"
        }
      ],
      "stateMutability": "view",
      "type": "function"
    },
    {
      "inputs": [
        {
          "internalType": "uint256",
          "name": "tokenId",
          "type": "uint256"
        }
      ],
      "name": "tokenURI",
      "outputs": [
        {
          "internalType": "string",
          "name": "",
          "type": "string"
        }
      ],
      "stateMutability": "view",
      "type": "function"
    },
    {
      "inputs": [
        {
          "internalType": "address",
          "name": "from",
          "type": "address"
        },
        {
          "internalType": "address",
          "name": "to",
          "type": "address"
        },
        {
          "internalType": "uint256",
          "name": "tokenId",
          "type": "uint256"
        }
      ],
      "name": "transferFrom",
      "outputs": [],
      "stateMutability": "nonpayable",
      "type": "function"
    },
    {
      "inputs": [
        {
          "internalType": "address",
          "name": "newOwner",
          "type": "address"
        }
      ],
      "name": "transferOwnership",
      "outputs": [],
      "stateMutability": "nonpayable",
      "type": "function"
    }
  ],
  "args": [
    "0xc57B33452b4F7BB189bB5AfaE9cc4aBa1f7a4FD8",
    {
      "0": 53,
      "1": 51,
      "2": 49,
      "3": 48,
      "4": 57,
      "5": 50,
      "6": 98,
      "7": 57,
      "8": 98,
      "9": 53,
      "10": 51,
      "11": 48,
      "12": 52,
      "13": 101,
      "14": 50,
      "15": 98,
      "16": 56,
      "17": 52,
      "18": 57,
      "19": 102,
      "20": 51,
      "21": 99,
      "22": 50,
      "23": 56,
      "24": 54,
      "25": 55,
      "26": 49,
      "27": 48,
      "28": 54,
      "29": 53,
      "30": 98,
      "31": 99
    },
    "1000000000000000000",
    "0x01BE23585060835E02B77ef475b0Cc51aA1e0709"
  ],
  "solcInputHash": "da341507a810b9e91bf7bb5d6a07e587",
  "bytecode": "0x608060405260016004553480156200001657600080fd5b50604051620050be380380620050be83398181016040528101906200003c9190620005ef565b6040518060400160405280600d81526020017f53636176656e67657248756e74000000000000000000000000000000000000008152506040518060400160405280600281526020017f53480000000000000000000000000000000000000000000000000000000000008152508160069080519060200190620000c0929190620004c8565b508060079080519060200190620000d9929190620004c8565b505050620000fc620000f06200030e60201b60201c565b6200031660201b60201c565b600073ffffffffffffffffffffffffffffffffffffffff168173ffffffffffffffffffffffffffffffffffffffff161415620001485762000142620003dc60201b60201c565b6200015a565b62000159816200048460201b60201c565b5b83600d60006101000a81548173ffffffffffffffffffffffffffffffffffffffff021916908373ffffffffffffffffffffffffffffffffffffffff16021790555082600e8190555081600f8190555060026012819055506040518060600160405280603581526020016200501f60359139601560008081526020019081526020016000209080519060200190620001f3929190620004c8565b5060405180606001604052806035815260200162004fea603591396015600060018152602001908152602001600020908051906020019062000237929190620004c8565b506040518060600160405280603581526020016200505460359139601560006002815260200190815260200160002090805190602001906200027b929190620004c8565b50604051806060016040528060358152602001620050896035913960156000600381526020019081526020016000209080519060200190620002bf929190620004c8565b5060405180606001604052806035815260200162004fb5603591396015600060048152602001908152602001600020908051906020019062000303929190620004c8565b505050505062000761565b600033905090565b6000600c60009054906101000a900473ffffffffffffffffffffffffffffffffffffffff16905081600c60006101000a81548173ffffffffffffffffffffffffffffffffffffffff021916908373ffffffffffffffffffffffffffffffffffffffff1602179055508173ffffffffffffffffffffffffffffffffffffffff168173ffffffffffffffffffffffffffffffffffffffff167f8be0079c531659141344cd1fd0a4f28419497f9722a3daafe3b4186f6b6457e060405160405180910390a35050565b6200048273c89bd4e1632d3a43cb03aaad5262cbe4038bc57173ffffffffffffffffffffffffffffffffffffffff166338cc48316040518163ffffffff1660e01b815260040160206040518083038186803b1580156200043b57600080fd5b505afa15801562000450573d6000803e3d6000fd5b505050506040513d601f19601f82011682018060405250810190620004769190620005bd565b6200048460201b60201c565b565b80600260006101000a81548173ffffffffffffffffffffffffffffffffffffffff021916908373ffffffffffffffffffffffffffffffffffffffff16021790555050565b828054620004d690620006a9565b90600052602060002090601f016020900481019282620004fa576000855562000546565b82601f106200051557805160ff191683800117855562000546565b8280016001018555821562000546579182015b828111156200054557825182559160200191906001019062000528565b5b50905062000555919062000559565b5090565b5b80821115620005745760008160009055506001016200055a565b5090565b600081519050620005898162000713565b92915050565b600081519050620005a0816200072d565b92915050565b600081519050620005b78162000747565b92915050565b600060208284031215620005d657620005d56200070e565b5b6000620005e68482850162000578565b91505092915050565b600080600080608085870312156200060c576200060b6200070e565b5b60006200061c8782880162000578565b94505060206200062f878288016200058f565b93505060406200064287828801620005a6565b9250506060620006558782880162000578565b91505092959194509250565b60006200066e826200067f565b9050919050565b6000819050919050565b600073ffffffffffffffffffffffffffffffffffffffff82169050919050565b6000819050919050565b60006002820490506001821680620006c257607f821691505b60208210811415620006d957620006d8620006df565b5b50919050565b7f4e487b7100000000000000000000000000000000000000000000000000000000600052602260045260246000fd5b600080fd5b6200071e8162000661565b81146200072a57600080fd5b50565b620007388162000675565b81146200074457600080fd5b50565b62000752816200069f565b81146200075e57600080fd5b50565b61484480620007716000396000f3fe608060405234801561001057600080fd5b50600436106101c45760003560e01c8063715018a6116100f9578063c87b56dd11610097578063e985e9c511610071578063e985e9c514610501578063f2fde38b14610531578063f5addf9d1461054d578063fd4f19ea1461057d576101c4565b8063c87b56dd14610499578063df568e8d146104c9578063e73a914c146104e5576101c4565b806395d89b41116100d357806395d89b4114610413578063a22cb46514610431578063b62b79391461044d578063b88d4fde1461047d576101c4565b8063715018a6146103bb5780637c76f045146103c55780638da5cb5b146103f5576101c4565b806333e7577711610166578063458c4c1f11610140578063458c4c1f1461030d5780636352211e1461032b5780636d1a01011461035b57806370a082311461038b576101c4565b806333e75777146102b757806342842e0e146102d55780634357855e146102f1576101c4565b806308e47925116101a257806308e4792514610247578063095ea7b31461026357806323b872dd1461027f578063280944f51461029b576101c4565b806301ffc9a7146101c957806306fdde03146101f9578063081812fc14610217575b600080fd5b6101e360048036038101906101de9190613132565b61059b565b6040516101f0919061382d565b60405180910390f35b61020161067d565b60405161020e9190613863565b60405180910390f35b610231600480360381019061022c91906131d5565b61070f565b60405161023e9190613703565b60405180910390f35b610261600480360381019061025c9190612ed5565b610794565b005b61027d60048036038101906102789190613058565b6108c7565b005b61029960048036038101906102949190612f42565b6109df565b005b6102b560048036038101906102b09190612f02565b610a3f565b005b6102bf610b6c565b6040516102cc9190613b05565b60405180910390f35b6102ef60048036038101906102ea9190612f42565b610b72565b005b61030b600480360381019061030691906130f2565b610b92565b005b610315610d6c565b6040516103229190613863565b60405180910390f35b610345600480360381019061034091906131d5565b610dfa565b6040516103529190613703565b60405180910390f35b6103756004803603810190610370919061318c565b610eac565b6040516103829190613848565b60405180910390f35b6103a560048036038101906103a09190612ed5565b610fdb565b6040516103b29190613b05565b60405180910390f35b6103c3611093565b005b6103df60048036038101906103da91906130c5565b61111b565b6040516103ec9190613703565b60405180910390f35b6103fd61114e565b60405161040a9190613703565b60405180910390f35b61041b611178565b6040516104289190613863565b60405180910390f35b61044b60048036038101906104469190613018565b61120a565b005b610467600480360381019061046291906131d5565b61138b565b6040516104749190613863565b60405180910390f35b61049760048036038101906104929190612f95565b61142b565b005b6104b360048036038101906104ae91906131d5565b61148d565b6040516104c09190613863565b60405180910390f35b6104e360048036038101906104de919061318c565b6115c6565b005b6104ff60048036038101906104fa9190612ed5565b61165c565b005b61051b60048036038101906105169190612f02565b61171c565b604051610528919061382d565b60405180910390f35b61054b60048036038101906105469190612ed5565b6117b0565b005b610567600480360381019061056291906131d5565b6118a8565b604051610574919061382d565b60405180910390f35b6105856118c8565b6040516105929190613703565b60405180910390f35b60007f80ac58cd000000000000000000000000000000000000000000000000000000007bffffffffffffffffffffffffffffffffffffffffffffffffffffffff1916827bffffffffffffffffffffffffffffffffffffffffffffffffffffffff1916148061066657507f5b5e139f000000000000000000000000000000000000000000000000000000007bffffffffffffffffffffffffffffffffffffffffffffffffffffffff1916827bffffffffffffffffffffffffffffffffffffffffffffffffffffffff1916145b806106765750610675826118ee565b5b9050919050565b60606006805461068c90613f66565b80601f01602080910402602001604051908101604052809291908181526020018280546106b890613f66565b80156107055780601f106106da57610100808354040283529160200191610705565b820191906000526020600020905b8154815290600101906020018083116106e857829003601f168201915b5050505050905090565b600061071a82611958565b610759576040517f08c379a000000000000000000000000000000000000000000000000000000000815260040161075090613a05565b60405180910390fd5b600a600083815260200190815260200160002060009054906101000a900473ffffffffffffffffffffffffffffffffffffffff169050919050565b601060009054906101000a900473ffffffffffffffffffffffffffffffffffffffff1673ffffffffffffffffffffffffffffffffffffffff163373ffffffffffffffffffffffffffffffffffffffff1614610824576040517f08c379a000000000000000000000000000000000000000000000000000000000815260040161081b906139c5565b60405180910390fd5b60001515601460006003815260200190815260200160002060009054906101000a900460ff1615151461088c576040517f08c379a000000000000000000000000000000000000000000000000000000000815260040161088390613aa5565b60405180910390fd5b6001601460006003815260200190815260200160002060006101000a81548160ff0219169083151502179055506108c48160036119c4565b50565b60006108d282610dfa565b90508073ffffffffffffffffffffffffffffffffffffffff168373ffffffffffffffffffffffffffffffffffffffff161415610943576040517f08c379a000000000000000000000000000000000000000000000000000000000815260040161093a90613a85565b60405180910390fd5b8073ffffffffffffffffffffffffffffffffffffffff166109626119e2565b73ffffffffffffffffffffffffffffffffffffffff16148061099157506109908161098b6119e2565b61171c565b5b6109d0576040517f08c379a00000000000000000000000000000000000000000000000000000000081526004016109c790613965565b60405180910390fd5b6109da83836119ea565b505050565b6109f06109ea6119e2565b82611aa3565b610a2f576040517f08c379a0000000000000000000000000000000000000000000000000000000008152600401610a2690613ac5565b60405180910390fd5b610a3a838383611b81565b505050565b60001515601460006004815260200190815260200160002060009054906101000a900460ff16151514610aa7576040517f08c379a0000000000000000000000000000000000000000000000000000000008152600401610a9e90613aa5565b60405180910390fd5b6001601254610ab69190613e3c565b6012819055508173ffffffffffffffffffffffffffffffffffffffff1663b0bea7256040518163ffffffff1660e01b8152600401600060405180830381600087803b158015610b0457600080fd5b505af1158015610b18573d6000803e3d6000fd5b5050505060006012541415610b60576001601460006004815260200190815260200160002060006101000a81548160ff021916908315150217905550610b5f8160046119c4565b5b60026012819055505050565b60125481565b610b8d8383836040518060200160405280600081525061142b565b505050565b816005600082815260200190815260200160002060009054906101000a900473ffffffffffffffffffffffffffffffffffffffff1673ffffffffffffffffffffffffffffffffffffffff163373ffffffffffffffffffffffffffffffffffffffff1614610c34576040517f08c379a0000000000000000000000000000000000000000000000000000000008152600401610c2b90613ae5565b60405180910390fd5b6005600082815260200190815260200160002060006101000a81549073ffffffffffffffffffffffffffffffffffffffff0219169055807f7cc135e0cebb02c3480ae5d74d377283180a2601f8f644edf7987b009316c63a60405160405180910390a2600015156014600084815260200190815260200160002060009054906101000a900460ff16151514610cfe576040517f08c379a0000000000000000000000000000000000000000000000000000000008152600401610cf590613aa5565b60405180910390fd5b60016014600084815260200190815260200160002060006101000a81548160ff021916908315150217905550610d676013600085815260200190815260200160002060009054906101000a900473ffffffffffffffffffffffffffffffffffffffff16836119c4565b505050565b60118054610d7990613f66565b80601f0160208091040260200160405190810160405280929190818152602001828054610da590613f66565b8015610df25780601f10610dc757610100808354040283529160200191610df2565b820191906000526020600020905b815481529060010190602001808311610dd557829003601f168201915b505050505081565b6000806008600084815260200190815260200160002060009054906101000a900473ffffffffffffffffffffffffffffffffffffffff169050600073ffffffffffffffffffffffffffffffffffffffff168173ffffffffffffffffffffffffffffffffffffffff161415610ea3576040517f08c379a0000000000000000000000000000000000000000000000000000000008152600401610e9a906139a5565b60405180910390fd5b80915050919050565b600080610ec3600e5430634357855e60e01b611ddd565b9050610f0f6040518060400160405280600881526020017f70617373776f72640000000000000000000000000000000000000000000000008152508483611e0e9092919063ffffffff16565b610f3e600d60009054906101000a900473ffffffffffffffffffffffffffffffffffffffff1682600f54611e41565b9150336013600084815260200190815260200160002060006101000a81548173ffffffffffffffffffffffffffffffffffffffff021916908373ffffffffffffffffffffffffffffffffffffffff16021790555082604051610fa09190613692565b6040518091039020827fd343173779c5965d351cff239d14b28cc89b65bc4dceb47be2c18fc3925e9f2460405160405180910390a350919050565b60008073ffffffffffffffffffffffffffffffffffffffff168273ffffffffffffffffffffffffffffffffffffffff16141561104c576040517f08c379a000000000000000000000000000000000000000000000000000000000815260040161104390613985565b60405180910390fd5b600960008373ffffffffffffffffffffffffffffffffffffffff1673ffffffffffffffffffffffffffffffffffffffff168152602001908152602001600020549050919050565b61109b6119e2565b73ffffffffffffffffffffffffffffffffffffffff166110b961114e565b73ffffffffffffffffffffffffffffffffffffffff161461110f576040517f08c379a000000000000000000000000000000000000000000000000000000000815260040161110690613a25565b60405180910390fd5b6111196000611e61565b565b60136020528060005260406000206000915054906101000a900473ffffffffffffffffffffffffffffffffffffffff1681565b6000600c60009054906101000a900473ffffffffffffffffffffffffffffffffffffffff16905090565b60606007805461118790613f66565b80601f01602080910402602001604051908101604052809291908181526020018280546111b390613f66565b80156112005780601f106111d557610100808354040283529160200191611200565b820191906000526020600020905b8154815290600101906020018083116111e357829003601f168201915b5050505050905090565b6112126119e2565b73ffffffffffffffffffffffffffffffffffffffff168273ffffffffffffffffffffffffffffffffffffffff161415611280576040517f08c379a000000000000000000000000000000000000000000000000000000000815260040161127790613925565b60405180910390fd5b80600b600061128d6119e2565b73ffffffffffffffffffffffffffffffffffffffff1673ffffffffffffffffffffffffffffffffffffffff16815260200190815260200160002060008473ffffffffffffffffffffffffffffffffffffffff1673ffffffffffffffffffffffffffffffffffffffff16815260200190815260200160002060006101000a81548160ff0219169083151502179055508173ffffffffffffffffffffffffffffffffffffffff1661133a6119e2565b73ffffffffffffffffffffffffffffffffffffffff167f17307eab39ab6107e8899845ad3d59bd9653f200f220920489ca2b5937696c318360405161137f919061382d565b60405180910390a35050565b601560205280600052604060002060009150905080546113aa90613f66565b80601f01602080910402602001604051908101604052809291908181526020018280546113d690613f66565b80156114235780601f106113f857610100808354040283529160200191611423565b820191906000526020600020905b81548152906001019060200180831161140657829003601f168201915b505050505081565b61143c6114366119e2565b83611aa3565b61147b576040517f08c379a000000000000000000000000000000000000000000000000000000000815260040161147290613ac5565b60405180910390fd5b61148784848484611f27565b50505050565b606061149882611958565b6114d7576040517f08c379a00000000000000000000000000000000000000000000000000000000081526004016114ce90613a65565b60405180910390fd5b60006015600084815260200190815260200160002080546114f790613f66565b80601f016020809104026020016040519081016040528092919081815260200182805461152390613f66565b80156115705780601f1061154557610100808354040283529160200191611570565b820191906000526020600020905b81548152906001019060200180831161155357829003601f168201915b5050505050905061159f8160405160200161158b91906136a9565b604051602081830303815290604052611f83565b6040516020016115af91906136e1565b604051602081830303815290604052915050919050565b6115ce6119e2565b73ffffffffffffffffffffffffffffffffffffffff166115ec61114e565b73ffffffffffffffffffffffffffffffffffffffff1614611642576040517f08c379a000000000000000000000000000000000000000000000000000000000815260040161163990613a25565b60405180910390fd5b8060119080519060200190611658929190612c38565b5050565b6116646119e2565b73ffffffffffffffffffffffffffffffffffffffff1661168261114e565b73ffffffffffffffffffffffffffffffffffffffff16146116d8576040517f08c379a00000000000000000000000000000000000000000000000000000000081526004016116cf90613a25565b60405180910390fd5b80601060006101000a81548173ffffffffffffffffffffffffffffffffffffffff021916908373ffffffffffffffffffffffffffffffffffffffff16021790555050565b6000600b60008473ffffffffffffffffffffffffffffffffffffffff1673ffffffffffffffffffffffffffffffffffffffff16815260200190815260200160002060008373ffffffffffffffffffffffffffffffffffffffff1673ffffffffffffffffffffffffffffffffffffffff16815260200190815260200160002060009054906101000a900460ff16905092915050565b6117b86119e2565b73ffffffffffffffffffffffffffffffffffffffff166117d661114e565b73ffffffffffffffffffffffffffffffffffffffff161461182c576040517f08c379a000000000000000000000000000000000000000000000000000000000815260040161182390613a25565b60405180910390fd5b600073ffffffffffffffffffffffffffffffffffffffff168173ffffffffffffffffffffffffffffffffffffffff16141561189c576040517f08c379a0000000000000000000000000000000000000000000000000000000008152600401611893906138a5565b60405180910390fd5b6118a581611e61565b50565b60146020528060005260406000206000915054906101000a900460ff1681565b601060009054906101000a900473ffffffffffffffffffffffffffffffffffffffff1681565b60007f01ffc9a7000000000000000000000000000000000000000000000000000000007bffffffffffffffffffffffffffffffffffffffffffffffffffffffff1916827bffffffffffffffffffffffffffffffffffffffffffffffffffffffff1916149050919050565b60008073ffffffffffffffffffffffffffffffffffffffff166008600084815260200190815260200160002060009054906101000a900473ffffffffffffffffffffffffffffffffffffffff1673ffffffffffffffffffffffffffffffffffffffff1614159050919050565b6119de8282604051806020016040528060008152506120fc565b5050565b600033905090565b81600a600083815260200190815260200160002060006101000a81548173ffffffffffffffffffffffffffffffffffffffff021916908373ffffffffffffffffffffffffffffffffffffffff160217905550808273ffffffffffffffffffffffffffffffffffffffff16611a5d83610dfa565b73ffffffffffffffffffffffffffffffffffffffff167f8c5be1e5ebec7d5bd14f71427d1e84f3dd0314c0f7b2291e5b200ac8c7c3b92560405160405180910390a45050565b6000611aae82611958565b611aed576040517f08c379a0000000000000000000000000000000000000000000000000000000008152600401611ae490613945565b60405180910390fd5b6000611af883610dfa565b90508073ffffffffffffffffffffffffffffffffffffffff168473ffffffffffffffffffffffffffffffffffffffff161480611b6757508373ffffffffffffffffffffffffffffffffffffffff16611b4f8461070f565b73ffffffffffffffffffffffffffffffffffffffff16145b80611b785750611b77818561171c565b5b91505092915050565b8273ffffffffffffffffffffffffffffffffffffffff16611ba182610dfa565b73ffffffffffffffffffffffffffffffffffffffff1614611bf7576040517f08c379a0000000000000000000000000000000000000000000000000000000008152600401611bee90613a45565b60405180910390fd5b600073ffffffffffffffffffffffffffffffffffffffff168273ffffffffffffffffffffffffffffffffffffffff161415611c67576040517f08c379a0000000000000000000000000000000000000000000000000000000008152600401611c5e90613905565b60405180910390fd5b611c72838383612157565b611c7d6000826119ea565b6001600960008573ffffffffffffffffffffffffffffffffffffffff1673ffffffffffffffffffffffffffffffffffffffff1681526020019081526020016000206000828254611ccd9190613e3c565b925050819055506001600960008473ffffffffffffffffffffffffffffffffffffffff1673ffffffffffffffffffffffffffffffffffffffff1681526020019081526020016000206000828254611d249190613bea565b92505081905550816008600083815260200190815260200160002060006101000a81548173ffffffffffffffffffffffffffffffffffffffff021916908373ffffffffffffffffffffffffffffffffffffffff160217905550808273ffffffffffffffffffffffffffffffffffffffff168473ffffffffffffffffffffffffffffffffffffffff167fddf252ad1be2c89b69c2b068fc378daa952ba7f163c4a11628f55a4df523b3ef60405160405180910390a4505050565b611de5612cbe565b611ded612cbe565b611e048585858461215c909392919063ffffffff16565b9150509392505050565b611e2582846080015161220c90919063ffffffff16565b611e3c81846080015161220c90919063ffffffff16565b505050565b6000611e588484846001634042994660e01b612231565b90509392505050565b6000600c60009054906101000a900473ffffffffffffffffffffffffffffffffffffffff16905081600c60006101000a81548173ffffffffffffffffffffffffffffffffffffffff021916908373ffffffffffffffffffffffffffffffffffffffff1602179055508173ffffffffffffffffffffffffffffffffffffffff168173ffffffffffffffffffffffffffffffffffffffff167f8be0079c531659141344cd1fd0a4f28419497f9722a3daafe3b4186f6b6457e060405160405180910390a35050565b611f32848484611b81565b611f3e84848484612499565b611f7d576040517f08c379a0000000000000000000000000000000000000000000000000000000008152600401611f7490613885565b60405180910390fd5b50505050565b6060600082511415611fa6576040518060200160405280600081525090506120f7565b60006040518060600160405280604081526020016147cf6040913990506000600360028551611fd59190613bea565b611fdf9190613c40565b6004611feb9190613de2565b90506000602082611ffc9190613bea565b67ffffffffffffffff811115612015576120146140b5565b5b6040519080825280601f01601f1916602001820160405280156120475781602001600182028036833780820191505090505b509050818152600183018586518101602084015b818310156120b6576003830192508251603f8160121c168501518253600182019150603f81600c1c168501518253600182019150603f8160061c168501518253600182019150603f811685015182536001820191505061205b565b6003895106600181146120d057600281146120e0576120eb565b613d3d60f01b60028303526120eb565b603d60f81b60018303525b50505050508093505050505b919050565b6121068383612630565b6121136000848484612499565b612152576040517f08c379a000000000000000000000000000000000000000000000000000000000815260040161214990613885565b60405180910390fd5b505050565b505050565b612164612cbe565b61217485608001516101006127fe565b508385600001818152505082856020019073ffffffffffffffffffffffffffffffffffffffff16908173ffffffffffffffffffffffffffffffffffffffff16815250508185604001907bffffffffffffffffffffffffffffffffffffffffffffffffffffffff191690817bffffffffffffffffffffffffffffffffffffffffffffffffffffffff191681525050849050949350505050565b6122198260038351612868565b61222c81836129ad90919063ffffffff16565b505050565b600030600454604051602001612248929190613666565b604051602081830303815290604052805190602001209050600454856060018181525050856005600083815260200190815260200160002060006101000a81548173ffffffffffffffffffffffffffffffffffffffff021916908373ffffffffffffffffffffffffffffffffffffffff160217905550807fb5e6e01e79f91267dc17b4e6314d5d4d03593d2ceee0fbb452b750bd70ea5af960405160405180910390a2600082600080886000015189602001518a604001518b606001518a8d608001516000015160405160240161232698979695949392919061376a565b604051602081830303815290604052907bffffffffffffffffffffffffffffffffffffffffffffffffffffffff19166020820180517bffffffffffffffffffffffffffffffffffffffffffffffffffffffff83818316178352505050509050600260009054906101000a900473ffffffffffffffffffffffffffffffffffffffff1673ffffffffffffffffffffffffffffffffffffffff16634000aea08887846040518463ffffffff1660e01b81526004016123e4939291906137ef565b602060405180830381600087803b1580156123fe57600080fd5b505af1158015612412573d6000803e3d6000fd5b505050506040513d601f19601f820116820180604052508101906124369190613098565b612475576040517f08c379a000000000000000000000000000000000000000000000000000000000815260040161246c906138e5565b60405180910390fd5b6001600460008282546124889190613bea565b925050819055505095945050505050565b60006124ba8473ffffffffffffffffffffffffffffffffffffffff166129cf565b15612623578373ffffffffffffffffffffffffffffffffffffffff1663150b7a026124e36119e2565b8786866040518563ffffffff1660e01b8152600401612505949392919061371e565b602060405180830381600087803b15801561251f57600080fd5b505af192505050801561255057506040513d601f19601f8201168201806040525081019061254d919061315f565b60015b6125d3573d8060008114612580576040519150601f19603f3d011682016040523d82523d6000602084013e612585565b606091505b506000815114156125cb576040517f08c379a00000000000000000000000000000000000000000000000000000000081526004016125c290613885565b60405180910390fd5b805181602001fd5b63150b7a0260e01b7bffffffffffffffffffffffffffffffffffffffffffffffffffffffff1916817bffffffffffffffffffffffffffffffffffffffffffffffffffffffff191614915050612628565b600190505b949350505050565b600073ffffffffffffffffffffffffffffffffffffffff168273ffffffffffffffffffffffffffffffffffffffff1614156126a0576040517f08c379a0000000000000000000000000000000000000000000000000000000008152600401612697906139e5565b60405180910390fd5b6126a981611958565b156126e9576040517f08c379a00000000000000000000000000000000000000000000000000000000081526004016126e0906138c5565b60405180910390fd5b6126f560008383612157565b6001600960008473ffffffffffffffffffffffffffffffffffffffff1673ffffffffffffffffffffffffffffffffffffffff16815260200190815260200160002060008282546127459190613bea565b92505081905550816008600083815260200190815260200160002060006101000a81548173ffffffffffffffffffffffffffffffffffffffff021916908373ffffffffffffffffffffffffffffffffffffffff160217905550808273ffffffffffffffffffffffffffffffffffffffff16600073ffffffffffffffffffffffffffffffffffffffff167fddf252ad1be2c89b69c2b068fc378daa952ba7f163c4a11628f55a4df523b3ef60405160405180910390a45050565b612806612d2b565b60006020836128159190613ff7565b14612841576020826128279190613ff7565b60206128339190613e3c565b8261283e9190613bea565b91505b81836020018181525050604051808452600081528281016020016040525082905092915050565b601781116128955761288f8160058460ff16901b60ff1617846129e290919063ffffffff16565b506129a8565b60ff81116128d7576128ba601860058460ff16901b17846129e290919063ffffffff16565b506128d181600185612a029092919063ffffffff16565b506129a7565b61ffff811161291a576128fd601960058460ff16901b17846129e290919063ffffffff16565b5061291481600285612a029092919063ffffffff16565b506129a6565b63ffffffff811161295f57612942601a60058460ff16901b17846129e290919063ffffffff16565b5061295981600485612a029092919063ffffffff16565b506129a5565b67ffffffffffffffff81116129a45761298b601b60058460ff16901b17846129e290919063ffffffff16565b506129a281600885612a029092919063ffffffff16565b505b5b5b5b5b505050565b6129b5612d2b565b6129c783846000015151848551612a24565b905092915050565b600080823b905060008111915050919050565b6129ea612d2b565b6129fa8384600001515184612b13565b905092915050565b612a0a612d2b565b612a1b848560000151518585612b6a565b90509392505050565b612a2c612d2b565b8251821115612a3a57600080fd5b84602001518285612a4b9190613bea565b1115612a8057612a7f856002612a7088602001518887612a6b9190613bea565b612bf8565b612a7a9190613de2565b612c14565b5b600080865180518760208301019350808887011115612a9f5787860182525b60208701925050505b60208410612ae65780518252602082612ac19190613bea565b9150602081612ad09190613bea565b9050602084612adf9190613e3c565b9350612aa8565b60006001856020036101000a03905080198251168184511681811785525050508692505050949350505050565b612b1b612d2b565b83602001518310612b4157612b408460028660200151612b3b9190613de2565b612c14565b5b8351805160208583010184815381861415612b5d576001820183525b5050508390509392505050565b612b72612d2b565b84602001518483612b839190613bea565b1115612bab57612baa8560028685612b9b9190613bea565b612ba59190613de2565b612c14565b5b6000600183610100612bbd9190613cc4565b612bc79190613e3c565b90508551838682010185831982511617815281518588011115612bea5784870182525b505085915050949350505050565b600081831115612c0a57829050612c0e565b8190505b92915050565b600082600001519050612c2783836127fe565b50612c3283826129ad565b50505050565b828054612c4490613f66565b90600052602060002090601f016020900481019282612c665760008555612cad565b82601f10612c7f57805160ff1916838001178555612cad565b82800160010185558215612cad579182015b82811115612cac578251825591602001919060010190612c91565b5b509050612cba9190612d45565b5090565b6040518060a0016040528060008019168152602001600073ffffffffffffffffffffffffffffffffffffffff16815260200160007bffffffffffffffffffffffffffffffffffffffffffffffffffffffff1916815260200160008152602001612d25612d2b565b81525090565b604051806040016040528060608152602001600081525090565b5b80821115612d5e576000816000905550600101612d46565b5090565b6000612d75612d7084613b45565b613b20565b905082815260208101848484011115612d9157612d906140e9565b5b612d9c848285613f24565b509392505050565b6000612db7612db284613b76565b613b20565b905082815260208101848484011115612dd357612dd26140e9565b5b612dde848285613f24565b509392505050565b600081359050612df58161475b565b92915050565b600081359050612e0a81614772565b92915050565b600081519050612e1f81614772565b92915050565b600081359050612e3481614789565b92915050565b600081359050612e49816147a0565b92915050565b600081519050612e5e816147a0565b92915050565b600082601f830112612e7957612e786140e4565b5b8135612e89848260208601612d62565b91505092915050565b600082601f830112612ea757612ea66140e4565b5b8135612eb7848260208601612da4565b91505092915050565b600081359050612ecf816147b7565b92915050565b600060208284031215612eeb57612eea6140f3565b5b6000612ef984828501612de6565b91505092915050565b60008060408385031215612f1957612f186140f3565b5b6000612f2785828601612de6565b9250506020612f3885828601612de6565b9150509250929050565b600080600060608486031215612f5b57612f5a6140f3565b5b6000612f6986828701612de6565b9350506020612f7a86828701612de6565b9250506040612f8b86828701612ec0565b9150509250925092565b60008060008060808587031215612faf57612fae6140f3565b5b6000612fbd87828801612de6565b9450506020612fce87828801612de6565b9350506040612fdf87828801612ec0565b925050606085013567ffffffffffffffff81111561300057612fff6140ee565b5b61300c87828801612e64565b91505092959194509250565b6000806040838503121561302f5761302e6140f3565b5b600061303d85828601612de6565b925050602061304e85828601612dfb565b9150509250929050565b6000806040838503121561306f5761306e6140f3565b5b600061307d85828601612de6565b925050602061308e85828601612ec0565b9150509250929050565b6000602082840312156130ae576130ad6140f3565b5b60006130bc84828501612e10565b91505092915050565b6000602082840312156130db576130da6140f3565b5b60006130e984828501612e25565b91505092915050565b60008060408385031215613109576131086140f3565b5b600061311785828601612e25565b925050602061312885828601612ec0565b9150509250929050565b600060208284031215613148576131476140f3565b5b600061315684828501612e3a565b91505092915050565b600060208284031215613175576131746140f3565b5b600061318384828501612e4f565b91505092915050565b6000602082840312156131a2576131a16140f3565b5b600082013567ffffffffffffffff8111156131c0576131bf6140ee565b5b6131cc84828501612e92565b91505092915050565b6000602082840312156131eb576131ea6140f3565b5b60006131f984828501612ec0565b91505092915050565b61320b81613e70565b82525050565b61321a81613e82565b82525050565b61322981613e8e565b82525050565b61323881613e98565b82525050565b600061324982613ba7565b6132538185613bbd565b9350613263818560208601613f33565b61326c816140f8565b840191505092915050565b61328861328382613eee565b613fc9565b82525050565b600061329982613bb2565b6132a38185613bce565b93506132b3818560208601613f33565b6132bc816140f8565b840191505092915050565b60006132d282613bb2565b6132dc8185613bdf565b93506132ec818560208601613f33565b80840191505092915050565b6000613305603283613bce565b915061331082614123565b604082019050919050565b6000613328602683613bce565b915061333382614172565b604082019050919050565b600061334b601c83613bce565b9150613356826141c1565b602082019050919050565b600061336e602383613bce565b9150613379826141ea565b604082019050919050565b6000613391602483613bce565b915061339c82614239565b604082019050919050565b60006133b4601983613bce565b91506133bf82614288565b602082019050919050565b60006133d7602c83613bce565b91506133e2826142b1565b604082019050919050565b60006133fa603883613bce565b915061340582614300565b604082019050919050565b600061341d602a83613bce565b91506134288261434f565b604082019050919050565b6000613440602983613bce565b915061344b8261439e565b604082019050919050565b6000613463602583613bdf565b915061346e826143ed565b602582019050919050565b6000613486600283613bdf565b91506134918261443c565b600282019050919050565b60006134a9601883613bce565b91506134b482614465565b602082019050919050565b60006134cc602083613bce565b91506134d78261448e565b602082019050919050565b60006134ef602c83613bce565b91506134fa826144b7565b604082019050919050565b6000613512602083613bce565b915061351d82614506565b602082019050919050565b6000613535602983613bce565b91506135408261452f565b604082019050919050565b6000613558602f83613bce565b91506135638261457e565b604082019050919050565b600061357b602183613bce565b9150613586826145cd565b604082019050919050565b600061359e603383613bdf565b91506135a98261461c565b603382019050919050565b60006135c1601d83613bdf565b91506135cc8261466b565b601d82019050919050565b60006135e4601483613bce565b91506135ef82614694565b602082019050919050565b6000613607603183613bce565b9150613612826146bd565b604082019050919050565b600061362a602883613bce565b91506136358261470c565b604082019050919050565b61364981613ee4565b82525050565b61366061365b82613ee4565b613fed565b82525050565b60006136728285613277565b601482019150613682828461364f565b6020820191508190509392505050565b600061369e82846132c7565b915081905092915050565b60006136b482613591565b91506136bf82613456565b91506136cb82846132c7565b91506136d682613479565b915081905092915050565b60006136ec826135b4565b91506136f882846132c7565b915081905092915050565b60006020820190506137186000830184613202565b92915050565b60006080820190506137336000830187613202565b6137406020830186613202565b61374d6040830185613640565b818103606083015261375f818461323e565b905095945050505050565b600061010082019050613780600083018b613202565b61378d602083018a613640565b61379a6040830189613220565b6137a76060830188613202565b6137b4608083018761322f565b6137c160a0830186613640565b6137ce60c0830185613640565b81810360e08301526137e0818461323e565b90509998505050505050505050565b60006060820190506138046000830186613202565b6138116020830185613640565b8181036040830152613823818461323e565b9050949350505050565b60006020820190506138426000830184613211565b92915050565b600060208201905061385d6000830184613220565b92915050565b6000602082019050818103600083015261387d818461328e565b905092915050565b6000602082019050818103600083015261389e816132f8565b9050919050565b600060208201905081810360008301526138be8161331b565b9050919050565b600060208201905081810360008301526138de8161333e565b9050919050565b600060208201905081810360008301526138fe81613361565b9050919050565b6000602082019050818103600083015261391e81613384565b9050919050565b6000602082019050818103600083015261393e816133a7565b9050919050565b6000602082019050818103600083015261395e816133ca565b9050919050565b6000602082019050818103600083015261397e816133ed565b9050919050565b6000602082019050818103600083015261399e81613410565b9050919050565b600060208201905081810360008301526139be81613433565b9050919050565b600060208201905081810360008301526139de8161349c565b9050919050565b600060208201905081810360008301526139fe816134bf565b9050919050565b60006020820190508181036000830152613a1e816134e2565b9050919050565b60006020820190508181036000830152613a3e81613505565b9050919050565b60006020820190508181036000830152613a5e81613528565b9050919050565b60006020820190508181036000830152613a7e8161354b565b9050919050565b60006020820190508181036000830152613a9e8161356e565b9050919050565b60006020820190508181036000830152613abe816135d7565b9050919050565b60006020820190508181036000830152613ade816135fa565b9050919050565b60006020820190508181036000830152613afe8161361d565b9050919050565b6000602082019050613b1a6000830184613640565b92915050565b6000613b2a613b3b565b9050613b368282613f98565b919050565b6000604051905090565b600067ffffffffffffffff821115613b6057613b5f6140b5565b5b613b69826140f8565b9050602081019050919050565b600067ffffffffffffffff821115613b9157613b906140b5565b5b613b9a826140f8565b9050602081019050919050565b600081519050919050565b600081519050919050565b600082825260208201905092915050565b600082825260208201905092915050565b600081905092915050565b6000613bf582613ee4565b9150613c0083613ee4565b9250827fffffffffffffffffffffffffffffffffffffffffffffffffffffffffffffffff03821115613c3557613c34614028565b5b828201905092915050565b6000613c4b82613ee4565b9150613c5683613ee4565b925082613c6657613c65614057565b5b828204905092915050565b6000808291508390505b6001851115613cbb57808604811115613c9757613c96614028565b5b6001851615613ca65780820291505b8081029050613cb485614116565b9450613c7b565b94509492505050565b6000613ccf82613ee4565b9150613cda83613ee4565b9250613d077fffffffffffffffffffffffffffffffffffffffffffffffffffffffffffffffff8484613d0f565b905092915050565b600082613d1f5760019050613ddb565b81613d2d5760009050613ddb565b8160018114613d435760028114613d4d57613d7c565b6001915050613ddb565b60ff841115613d5f57613d5e614028565b5b8360020a915084821115613d7657613d75614028565b5b50613ddb565b5060208310610133831016604e8410600b8410161715613db15782820a905083811115613dac57613dab614028565b5b613ddb565b613dbe8484846001613c71565b92509050818404811115613dd557613dd4614028565b5b81810290505b9392505050565b6000613ded82613ee4565b9150613df883613ee4565b9250817fffffffffffffffffffffffffffffffffffffffffffffffffffffffffffffffff0483118215151615613e3157613e30614028565b5b828202905092915050565b6000613e4782613ee4565b9150613e5283613ee4565b925082821015613e6557613e64614028565b5b828203905092915050565b6000613e7b82613ec4565b9050919050565b60008115159050919050565b6000819050919050565b60007fffffffff0000000000000000000000000000000000000000000000000000000082169050919050565b600073ffffffffffffffffffffffffffffffffffffffff82169050919050565b6000819050919050565b6000613ef982613f00565b9050919050565b6000613f0b82613f12565b9050919050565b6000613f1d82613ec4565b9050919050565b82818337600083830152505050565b60005b83811015613f51578082015181840152602081019050613f36565b83811115613f60576000848401525b50505050565b60006002820490506001821680613f7e57607f821691505b60208210811415613f9257613f91614086565b5b50919050565b613fa1826140f8565b810181811067ffffffffffffffff82111715613fc057613fbf6140b5565b5b80604052505050565b6000613fd482613fdb565b9050919050565b6000613fe682614109565b9050919050565b6000819050919050565b600061400282613ee4565b915061400d83613ee4565b92508261401d5761401c614057565b5b828206905092915050565b7f4e487b7100000000000000000000000000000000000000000000000000000000600052601160045260246000fd5b7f4e487b7100000000000000000000000000000000000000000000000000000000600052601260045260246000fd5b7f4e487b7100000000000000000000000000000000000000000000000000000000600052602260045260246000fd5b7f4e487b7100000000000000000000000000000000000000000000000000000000600052604160045260246000fd5b600080fd5b600080fd5b600080fd5b600080fd5b6000601f19601f8301169050919050565b60008160601b9050919050565b60008160011c9050919050565b7f4552433732313a207472616e7366657220746f206e6f6e20455243373231526560008201527f63656976657220696d706c656d656e7465720000000000000000000000000000602082015250565b7f4f776e61626c653a206e6577206f776e657220697320746865207a65726f206160008201527f6464726573730000000000000000000000000000000000000000000000000000602082015250565b7f4552433732313a20746f6b656e20616c7265616479206d696e74656400000000600082015250565b7f756e61626c6520746f207472616e73666572416e6443616c6c20746f206f726160008201527f636c650000000000000000000000000000000000000000000000000000000000602082015250565b7f4552433732313a207472616e7366657220746f20746865207a65726f2061646460008201527f7265737300000000000000000000000000000000000000000000000000000000602082015250565b7f4552433732313a20617070726f766520746f2063616c6c657200000000000000600082015250565b7f4552433732313a206f70657261746f7220717565727920666f72206e6f6e657860008201527f697374656e7420746f6b656e0000000000000000000000000000000000000000602082015250565b7f4552433732313a20617070726f76652063616c6c6572206973206e6f74206f7760008201527f6e6572206e6f7220617070726f76656420666f7220616c6c0000000000000000602082015250565b7f4552433732313a2062616c616e636520717565727920666f7220746865207a6560008201527f726f206164647265737300000000000000000000000000000000000000000000602082015250565b7f4552433732313a206f776e657220717565727920666f72206e6f6e657869737460008201527f656e7420746f6b656e0000000000000000000000000000000000000000000000602082015250565b7f226465736372697074696f6e223a224e6963652046696e6421222c2022696d6160008201527f6765223a22000000000000000000000000000000000000000000000000000000602082015250565b7f227d000000000000000000000000000000000000000000000000000000000000600082015250565b7f4f6e6c79207468652044414f2063616e20646f20746869730000000000000000600082015250565b7f4552433732313a206d696e7420746f20746865207a65726f2061646472657373600082015250565b7f4552433732313a20617070726f76656420717565727920666f72206e6f6e657860008201527f697374656e7420746f6b656e0000000000000000000000000000000000000000602082015250565b7f4f776e61626c653a2063616c6c6572206973206e6f7420746865206f776e6572600082015250565b7f4552433732313a207472616e73666572206f6620746f6b656e2074686174206960008201527f73206e6f74206f776e0000000000000000000000000000000000000000000000602082015250565b7f4552433732314d657461646174613a2055524920717565727920666f72206e6f60008201527f6e6578697374656e7420746f6b656e0000000000000000000000000000000000602082015250565b7f4552433732313a20617070726f76616c20746f2063757272656e74206f776e6560008201527f7200000000000000000000000000000000000000000000000000000000000000602082015250565b7f7b226e616d65223a2022436861696e6c696e6b204861636b6174686f6e20536360008201527f6176656e6765722048756e74204e4654222c2000000000000000000000000000602082015250565b7f646174613a6170706c69636174696f6e2f6a736f6e3b6261736536342c000000600082015250565b7f5468697320746f6b656e2069732074616b656e21000000000000000000000000600082015250565b7f4552433732313a207472616e736665722063616c6c6572206973206e6f74206f60008201527f776e6572206e6f7220617070726f766564000000000000000000000000000000602082015250565b7f536f75726365206d75737420626520746865206f7261636c65206f662074686560008201527f2072657175657374000000000000000000000000000000000000000000000000602082015250565b61476481613e70565b811461476f57600080fd5b50565b61477b81613e82565b811461478657600080fd5b50565b61479281613e8e565b811461479d57600080fd5b50565b6147a981613e98565b81146147b457600080fd5b50565b6147c081613ee4565b81146147cb57600080fd5b5056fe4142434445464748494a4b4c4d4e4f505152535455565758595a6162636465666768696a6b6c6d6e6f707172737475767778797a303132333435363738392b2fa2646970667358221220824c05e1ce653192ba17dc9af6d0ea4cbcddb5b2d13e70587c73efc15d85e28564736f6c63430008070033697066733a2f2f516d6247573970366f50637a32685052334676357742484c32436f4737655531456f577a3433576f556e68635735697066733a2f2f516d53393467686a6d574b614b505655786451765534596a546165636b32524c6459574a624d6a61464d4a414b66697066733a2f2f516d634c346e4372455a4270734844394e534853716175516a4c316b756157546537376f5a56626f387a55466755697066733a2f2f516d5532597076636465585a5179376933613570654b56465762337477677068643650624a54783453456a587854697066733a2f2f516d56414e7177676f71444653446d4a4438556e78676f70474e75677632784d56686d4a6b6e6731524d44503364",
  "devdoc": {
    "kind": "dev",
    "methods": {
      "approve(address,uint256)": {
        "details": "See {IERC721-approve}."
      },
      "balanceOf(address)": {
        "details": "See {IERC721-balanceOf}."
      },
      "getApproved(uint256)": {
        "details": "See {IERC721-getApproved}."
      },
      "isApprovedForAll(address,address)": {
        "details": "See {IERC721-isApprovedForAll}."
      },
      "name()": {
        "details": "See {IERC721Metadata-name}."
      },
      "owner()": {
        "details": "Returns the address of the current owner."
      },
      "ownerOf(uint256)": {
        "details": "See {IERC721-ownerOf}."
      },
      "renounceOwnership()": {
        "details": "Leaves the contract without owner. It will not be possible to call `onlyOwner` functions anymore. Can only be called by the current owner. NOTE: Renouncing ownership will leave the contract without an owner, thereby removing any functionality that is only available to the owner."
      },
      "safeTransferFrom(address,address,uint256)": {
        "details": "See {IERC721-safeTransferFrom}."
      },
      "safeTransferFrom(address,address,uint256,bytes)": {
        "details": "See {IERC721-safeTransferFrom}."
      },
      "setApprovalForAll(address,bool)": {
        "details": "See {IERC721-setApprovalForAll}."
      },
      "supportsInterface(bytes4)": {
        "details": "See {IERC165-supportsInterface}."
      },
      "symbol()": {
        "details": "See {IERC721Metadata-symbol}."
      },
      "tokenURI(uint256)": {
        "details": "See {IERC721Metadata-tokenURI}."
      },
      "transferFrom(address,address,uint256)": {
        "details": "See {IERC721-transferFrom}."
      },
      "transferOwnership(address)": {
        "details": "Transfers ownership of the contract to a new account (`newOwner`). Can only be called by the current owner."
      }
    },
    "version": 1
  },
  "userdoc": {
    "kind": "user",
    "methods": {
      "fulfill(bytes32,uint256)": {
        "notice": "Receive the response in the form of uint256"
      }
    },
    "version": 1
  },
  "storageLayout": {
    "storage": [
      {
        "astId": 318,
        "contract": "contracts/ScavengerHunt.sol:ScavengerHunt",
        "label": "ens",
        "offset": 0,
        "slot": "0",
        "type": "t_contract(ENSInterface)912"
      },
      {
        "astId": 320,
        "contract": "contracts/ScavengerHunt.sol:ScavengerHunt",
        "label": "ensNode",
        "offset": 0,
        "slot": "1",
        "type": "t_bytes32"
      },
      {
        "astId": 323,
        "contract": "contracts/ScavengerHunt.sol:ScavengerHunt",
        "label": "link",
        "offset": 0,
        "slot": "2",
        "type": "t_contract(LinkTokenInterface)1007"
      },
      {
        "astId": 326,
        "contract": "contracts/ScavengerHunt.sol:ScavengerHunt",
        "label": "oracle",
        "offset": 0,
        "slot": "3",
        "type": "t_contract(OperatorInterface)1089"
      },
      {
        "astId": 329,
        "contract": "contracts/ScavengerHunt.sol:ScavengerHunt",
        "label": "requestCount",
        "offset": 0,
        "slot": "4",
        "type": "t_uint256"
      },
      {
        "astId": 333,
        "contract": "contracts/ScavengerHunt.sol:ScavengerHunt",
        "label": "pendingRequests",
        "offset": 0,
        "slot": "5",
        "type": "t_mapping(t_bytes32,t_address)"
      },
      {
        "astId": 2223,
        "contract": "contracts/ScavengerHunt.sol:ScavengerHunt",
        "label": "_name",
        "offset": 0,
        "slot": "6",
        "type": "t_string_storage"
      },
      {
        "astId": 2225,
        "contract": "contracts/ScavengerHunt.sol:ScavengerHunt",
        "label": "_symbol",
        "offset": 0,
        "slot": "7",
        "type": "t_string_storage"
      },
      {
        "astId": 2229,
        "contract": "contracts/ScavengerHunt.sol:ScavengerHunt",
        "label": "_owners",
        "offset": 0,
        "slot": "8",
        "type": "t_mapping(t_uint256,t_address)"
      },
      {
        "astId": 2233,
        "contract": "contracts/ScavengerHunt.sol:ScavengerHunt",
        "label": "_balances",
        "offset": 0,
        "slot": "9",
        "type": "t_mapping(t_address,t_uint256)"
      },
      {
        "astId": 2237,
        "contract": "contracts/ScavengerHunt.sol:ScavengerHunt",
        "label": "_tokenApprovals",
        "offset": 0,
        "slot": "10",
        "type": "t_mapping(t_uint256,t_address)"
      },
      {
        "astId": 2243,
        "contract": "contracts/ScavengerHunt.sol:ScavengerHunt",
        "label": "_operatorApprovals",
        "offset": 0,
        "slot": "11",
        "type": "t_mapping(t_address,t_mapping(t_address,t_bool))"
      },
      {
        "astId": 2101,
        "contract": "contracts/ScavengerHunt.sol:ScavengerHunt",
        "label": "_owner",
        "offset": 0,
        "slot": "12",
        "type": "t_address"
      },
      {
        "astId": 3869,
        "contract": "contracts/ScavengerHunt.sol:ScavengerHunt",
        "label": "s_oracle",
        "offset": 0,
        "slot": "13",
        "type": "t_address"
      },
      {
        "astId": 3871,
        "contract": "contracts/ScavengerHunt.sol:ScavengerHunt",
        "label": "s_jobId",
        "offset": 0,
        "slot": "14",
        "type": "t_bytes32"
      },
      {
        "astId": 3873,
        "contract": "contracts/ScavengerHunt.sol:ScavengerHunt",
        "label": "s_fee",
        "offset": 0,
        "slot": "15",
        "type": "t_uint256"
      },
      {
        "astId": 3875,
        "contract": "contracts/ScavengerHunt.sol:ScavengerHunt",
        "label": "s_dao",
        "offset": 0,
        "slot": "16",
        "type": "t_address"
      },
      {
        "astId": 3877,
        "contract": "contracts/ScavengerHunt.sol:ScavengerHunt",
        "label": "s_passwordtwo",
        "offset": 0,
        "slot": "17",
        "type": "t_string_storage"
      },
      {
        "astId": 3879,
        "contract": "contracts/ScavengerHunt.sol:ScavengerHunt",
        "label": "s_variable",
        "offset": 0,
        "slot": "18",
        "type": "t_uint256"
      },
      {
        "astId": 3883,
        "contract": "contracts/ScavengerHunt.sol:ScavengerHunt",
        "label": "requestIdToAttemptee",
        "offset": 0,
        "slot": "19",
        "type": "t_mapping(t_bytes32,t_address)"
      },
      {
        "astId": 3887,
        "contract": "contracts/ScavengerHunt.sol:ScavengerHunt",
        "label": "tokenIdTaken",
        "offset": 0,
        "slot": "20",
        "type": "t_mapping(t_uint256,t_bool)"
      },
      {
        "astId": 3891,
        "contract": "contracts/ScavengerHunt.sol:ScavengerHunt",
        "label": "tokenIdToImageURI",
        "offset": 0,
        "slot": "21",
        "type": "t_mapping(t_uint256,t_string_storage)"
      }
    ],
    "types": {
      "t_address": {
        "encoding": "inplace",
        "label": "address",
        "numberOfBytes": "20"
      },
      "t_bool": {
        "encoding": "inplace",
        "label": "bool",
        "numberOfBytes": "1"
      },
      "t_bytes32": {
        "encoding": "inplace",
        "label": "bytes32",
        "numberOfBytes": "32"
      },
      "t_contract(ENSInterface)912": {
        "encoding": "inplace",
        "label": "contract ENSInterface",
        "numberOfBytes": "20"
      },
      "t_contract(LinkTokenInterface)1007": {
        "encoding": "inplace",
        "label": "contract LinkTokenInterface",
        "numberOfBytes": "20"
      },
      "t_contract(OperatorInterface)1089": {
        "encoding": "inplace",
        "label": "contract OperatorInterface",
        "numberOfBytes": "20"
      },
      "t_mapping(t_address,t_bool)": {
        "encoding": "mapping",
        "key": "t_address",
        "label": "mapping(address => bool)",
        "numberOfBytes": "32",
        "value": "t_bool"
      },
      "t_mapping(t_address,t_mapping(t_address,t_bool))": {
        "encoding": "mapping",
        "key": "t_address",
        "label": "mapping(address => mapping(address => bool))",
        "numberOfBytes": "32",
        "value": "t_mapping(t_address,t_bool)"
      },
      "t_mapping(t_address,t_uint256)": {
        "encoding": "mapping",
        "key": "t_address",
        "label": "mapping(address => uint256)",
        "numberOfBytes": "32",
        "value": "t_uint256"
      },
      "t_mapping(t_bytes32,t_address)": {
        "encoding": "mapping",
        "key": "t_bytes32",
        "label": "mapping(bytes32 => address)",
        "numberOfBytes": "32",
        "value": "t_address"
      },
      "t_mapping(t_uint256,t_address)": {
        "encoding": "mapping",
        "key": "t_uint256",
        "label": "mapping(uint256 => address)",
        "numberOfBytes": "32",
        "value": "t_address"
      },
      "t_mapping(t_uint256,t_bool)": {
        "encoding": "mapping",
        "key": "t_uint256",
        "label": "mapping(uint256 => bool)",
        "numberOfBytes": "32",
        "value": "t_bool"
      },
      "t_mapping(t_uint256,t_string_storage)": {
        "encoding": "mapping",
        "key": "t_uint256",
        "label": "mapping(uint256 => string)",
        "numberOfBytes": "32",
        "value": "t_string_storage"
      },
      "t_string_storage": {
        "encoding": "bytes",
        "label": "string",
        "numberOfBytes": "32"
      },
      "t_uint256": {
        "encoding": "inplace",
        "label": "uint256",
        "numberOfBytes": "32"
      }
    }
  }
}